{
  "contractName": "BrickTokenERC721",
  "abi": [
    {
      "inputs": [],
      "stateMutability": "nonpayable",
      "type": "constructor"
    },
    {
      "anonymous": false,
      "inputs": [
        {
          "indexed": true,
          "internalType": "address",
          "name": "owner",
          "type": "address"
        },
        {
          "indexed": true,
          "internalType": "address",
          "name": "approved",
          "type": "address"
        },
        {
          "indexed": true,
          "internalType": "uint256",
          "name": "tokenId",
          "type": "uint256"
        }
      ],
      "name": "Approval",
      "type": "event"
    },
    {
      "anonymous": false,
      "inputs": [
        {
          "indexed": true,
          "internalType": "address",
          "name": "owner",
          "type": "address"
        },
        {
          "indexed": true,
          "internalType": "address",
          "name": "operator",
          "type": "address"
        },
        {
          "indexed": false,
          "internalType": "bool",
          "name": "approved",
          "type": "bool"
        }
      ],
      "name": "ApprovalForAll",
      "type": "event"
    },
    {
      "anonymous": false,
      "inputs": [
        {
          "indexed": true,
          "internalType": "address",
          "name": "from",
          "type": "address"
        },
        {
          "indexed": true,
          "internalType": "address",
          "name": "to",
          "type": "address"
        },
        {
          "indexed": true,
          "internalType": "uint256",
          "name": "tokenId",
          "type": "uint256"
        }
      ],
      "name": "Transfer",
      "type": "event"
    },
    {
      "inputs": [
        {
          "internalType": "uint256",
          "name": "",
          "type": "uint256"
        }
      ],
      "name": "_nftTokenPrices",
      "outputs": [
        {
          "internalType": "uint256",
          "name": "",
          "type": "uint256"
        }
      ],
      "stateMutability": "view",
      "type": "function",
      "constant": true
    },
    {
      "inputs": [
        {
          "internalType": "uint256",
          "name": "",
          "type": "uint256"
        }
      ],
      "name": "_nftTokenURIs",
      "outputs": [
        {
          "internalType": "string",
          "name": "",
          "type": "string"
        }
      ],
      "stateMutability": "view",
      "type": "function",
      "constant": true
    },
    {
      "inputs": [
        {
          "internalType": "address",
          "name": "to",
          "type": "address"
        },
        {
          "internalType": "uint256",
          "name": "tokenId",
          "type": "uint256"
        }
      ],
      "name": "approve",
      "outputs": [],
      "stateMutability": "nonpayable",
      "type": "function"
    },
    {
      "inputs": [
        {
          "internalType": "address",
          "name": "owner",
          "type": "address"
        }
      ],
      "name": "balanceOf",
      "outputs": [
        {
          "internalType": "uint256",
          "name": "",
          "type": "uint256"
        }
      ],
      "stateMutability": "view",
      "type": "function",
      "constant": true
    },
    {
      "inputs": [
        {
          "internalType": "uint256",
          "name": "tokenId",
          "type": "uint256"
        }
      ],
      "name": "getApproved",
      "outputs": [
        {
          "internalType": "address",
          "name": "",
          "type": "address"
        }
      ],
      "stateMutability": "view",
      "type": "function",
      "constant": true
    },
    {
      "inputs": [
        {
          "internalType": "address",
          "name": "owner",
          "type": "address"
        },
        {
          "internalType": "address",
          "name": "operator",
          "type": "address"
        }
      ],
      "name": "isApprovedForAll",
      "outputs": [
        {
          "internalType": "bool",
          "name": "",
          "type": "bool"
        }
      ],
      "stateMutability": "view",
      "type": "function",
      "constant": true
    },
    {
      "inputs": [],
      "name": "name",
      "outputs": [
        {
          "internalType": "string",
          "name": "",
          "type": "string"
        }
      ],
      "stateMutability": "view",
      "type": "function",
      "constant": true
    },
    {
      "inputs": [
        {
          "internalType": "uint256",
          "name": "",
          "type": "uint256"
        }
      ],
      "name": "onSaleNftTokenArray",
      "outputs": [
        {
          "internalType": "uint256",
          "name": "",
          "type": "uint256"
        }
      ],
      "stateMutability": "view",
      "type": "function",
      "constant": true
    },
    {
      "inputs": [
        {
          "internalType": "uint256",
          "name": "tokenId",
          "type": "uint256"
        }
      ],
      "name": "ownerOf",
      "outputs": [
        {
          "internalType": "address",
          "name": "",
          "type": "address"
        }
      ],
      "stateMutability": "view",
      "type": "function",
      "constant": true
    },
    {
      "inputs": [
        {
          "internalType": "address",
          "name": "from",
          "type": "address"
        },
        {
          "internalType": "address",
          "name": "to",
          "type": "address"
        },
        {
          "internalType": "uint256",
          "name": "tokenId",
          "type": "uint256"
        }
      ],
      "name": "safeTransferFrom",
      "outputs": [],
      "stateMutability": "nonpayable",
      "type": "function"
    },
    {
      "inputs": [
        {
          "internalType": "address",
          "name": "from",
          "type": "address"
        },
        {
          "internalType": "address",
          "name": "to",
          "type": "address"
        },
        {
          "internalType": "uint256",
          "name": "tokenId",
          "type": "uint256"
        },
        {
          "internalType": "bytes",
          "name": "data",
          "type": "bytes"
        }
      ],
      "name": "safeTransferFrom",
      "outputs": [],
      "stateMutability": "nonpayable",
      "type": "function"
    },
    {
      "inputs": [
        {
          "internalType": "address",
          "name": "operator",
          "type": "address"
        },
        {
          "internalType": "bool",
          "name": "approved",
          "type": "bool"
        }
      ],
      "name": "setApprovalForAll",
      "outputs": [],
      "stateMutability": "nonpayable",
      "type": "function"
    },
    {
      "inputs": [
        {
          "internalType": "bytes4",
          "name": "interfaceId",
          "type": "bytes4"
        }
      ],
      "name": "supportsInterface",
      "outputs": [
        {
          "internalType": "bool",
          "name": "",
          "type": "bool"
        }
      ],
      "stateMutability": "view",
      "type": "function",
      "constant": true
    },
    {
      "inputs": [],
      "name": "symbol",
      "outputs": [
        {
          "internalType": "string",
          "name": "",
          "type": "string"
        }
      ],
      "stateMutability": "view",
      "type": "function",
      "constant": true
    },
    {
      "inputs": [
        {
          "internalType": "uint256",
          "name": "index",
          "type": "uint256"
        }
      ],
      "name": "tokenByIndex",
      "outputs": [
        {
          "internalType": "uint256",
          "name": "",
          "type": "uint256"
        }
      ],
      "stateMutability": "view",
      "type": "function",
      "constant": true
    },
    {
      "inputs": [
        {
          "internalType": "address",
          "name": "owner",
          "type": "address"
        },
        {
          "internalType": "uint256",
          "name": "index",
          "type": "uint256"
        }
      ],
      "name": "tokenOfOwnerByIndex",
      "outputs": [
        {
          "internalType": "uint256",
          "name": "",
          "type": "uint256"
        }
      ],
      "stateMutability": "view",
      "type": "function",
      "constant": true
    },
    {
      "inputs": [],
      "name": "totalSupply",
      "outputs": [
        {
          "internalType": "uint256",
          "name": "",
          "type": "uint256"
        }
      ],
      "stateMutability": "view",
      "type": "function",
      "constant": true
    },
    {
      "inputs": [
        {
          "internalType": "address",
          "name": "from",
          "type": "address"
        },
        {
          "internalType": "address",
          "name": "to",
          "type": "address"
        },
        {
          "internalType": "uint256",
          "name": "tokenId",
          "type": "uint256"
        }
      ],
      "name": "transferFrom",
      "outputs": [],
      "stateMutability": "nonpayable",
      "type": "function"
    },
    {
      "inputs": [
        {
          "internalType": "uint256",
          "name": "tokenId",
          "type": "uint256"
        }
      ],
      "name": "tokenURI",
      "outputs": [
        {
          "internalType": "string",
          "name": "",
          "type": "string"
        }
      ],
      "stateMutability": "view",
      "type": "function",
      "constant": true
    },
    {
      "inputs": [
        {
          "internalType": "string",
          "name": "_tokenURI",
          "type": "string"
        }
      ],
      "name": "mintNFT",
      "outputs": [
        {
          "internalType": "uint256",
          "name": "",
          "type": "uint256"
        }
      ],
      "stateMutability": "nonpayable",
      "type": "function"
    },
    {
      "inputs": [
        {
          "internalType": "uint256",
          "name": "tokenId",
          "type": "uint256"
        }
      ],
      "name": "getNftTokenPrice",
      "outputs": [
        {
          "internalType": "uint256",
          "name": "",
          "type": "uint256"
        }
      ],
      "stateMutability": "view",
      "type": "function",
      "constant": true
    },
    {
      "inputs": [
        {
          "internalType": "address",
          "name": "nftTokenOwner",
          "type": "address"
        }
      ],
      "name": "getNftTokens",
      "outputs": [
        {
          "components": [
            {
              "internalType": "uint256",
              "name": "nftTokenId",
              "type": "uint256"
            },
            {
              "internalType": "string",
              "name": "nftTokenURI",
              "type": "string"
            },
            {
              "internalType": "uint256",
              "name": "price",
              "type": "uint256"
            }
          ],
          "internalType": "struct BrickTokenERC721.NftTokenData[]",
          "name": "",
          "type": "tuple[]"
        }
      ],
      "stateMutability": "view",
      "type": "function",
      "constant": true
    },
    {
      "inputs": [
        {
          "internalType": "uint256",
          "name": "tokenId",
          "type": "uint256"
        },
        {
          "internalType": "uint256",
          "name": "price",
          "type": "uint256"
        }
      ],
      "name": "setSaleNftToken",
      "outputs": [],
      "stateMutability": "nonpayable",
      "type": "function"
    },
    {
      "inputs": [],
      "name": "getSaleNftToken",
      "outputs": [
        {
          "internalType": "uint256[]",
          "name": "",
          "type": "uint256[]"
        }
      ],
      "stateMutability": "view",
      "type": "function",
      "constant": true
    },
    {
      "inputs": [],
      "name": "getSaleNftTokens",
      "outputs": [
        {
          "components": [
            {
              "internalType": "uint256",
              "name": "nftTokenId",
              "type": "uint256"
            },
            {
              "internalType": "string",
              "name": "nftTokenURI",
              "type": "string"
            },
            {
              "internalType": "uint256",
              "name": "price",
              "type": "uint256"
            }
          ],
          "internalType": "struct BrickTokenERC721.NftTokenData[]",
          "name": "",
          "type": "tuple[]"
        }
      ],
      "stateMutability": "view",
      "type": "function",
      "constant": true
    },
    {
      "inputs": [
        {
          "internalType": "uint256",
          "name": "tokenId",
          "type": "uint256"
        }
      ],
      "name": "removeToken",
      "outputs": [],
      "stateMutability": "nonpayable",
      "type": "function"
    },
    {
      "inputs": [
        {
          "internalType": "uint256",
          "name": "tokenId",
          "type": "uint256"
        }
      ],
      "name": "buyNftToken",
      "outputs": [],
      "stateMutability": "payable",
      "type": "function",
      "payable": true
    },
    {
      "inputs": [
        {
          "internalType": "uint256",
          "name": "tokenId",
          "type": "uint256"
        }
      ],
      "name": "burn",
      "outputs": [],
      "stateMutability": "nonpayable",
      "type": "function"
    }
  ],
  "bytecode": "0x60806040523480156200001157600080fd5b506040518060400160405280600a81526020017f427269636b546f6b656e000000000000000000000000000000000000000000008152506040518060400160405280600281526020017f425400000000000000000000000000000000000000000000000000000000000081525081600090816200008f919062000365565b508060019081620000a1919062000365565b50505033600b60006101000a81548173ffffffffffffffffffffffffffffffffffffffff021916908373ffffffffffffffffffffffffffffffffffffffff1602179055506200044c565b600081519050919050565b7f4e487b7100000000000000000000000000000000000000000000000000000000600052604160045260246000fd5b7f4e487b7100000000000000000000000000000000000000000000000000000000600052602260045260246000fd5b600060028204905060018216806200016d57607f821691505b60208210810362000183576200018262000125565b5b50919050565b60008190508160005260206000209050919050565b60006020601f8301049050919050565b600082821b905092915050565b600060088302620001ed7fffffffffffffffffffffffffffffffffffffffffffffffffffffffffffffffff82620001ae565b620001f98683620001ae565b95508019841693508086168417925050509392505050565b6000819050919050565b6000819050919050565b600062000246620002406200023a8462000211565b6200021b565b62000211565b9050919050565b6000819050919050565b620002628362000225565b6200027a62000271826200024d565b848454620001bb565b825550505050565b600090565b6200029162000282565b6200029e81848462000257565b505050565b5b81811015620002c657620002ba60008262000287565b600181019050620002a4565b5050565b601f8211156200031557620002df8162000189565b620002ea846200019e565b81016020851015620002fa578190505b6200031262000309856200019e565b830182620002a3565b50505b505050565b600082821c905092915050565b60006200033a600019846008026200031a565b1980831691505092915050565b600062000355838362000327565b9150826002028217905092915050565b6200037082620000eb565b67ffffffffffffffff8111156200038c576200038b620000f6565b5b62000398825462000154565b620003a5828285620002ca565b600060209050601f831160018114620003dd5760008415620003c8578287015190505b620003d4858262000347565b86555062000444565b601f198416620003ed8662000189565b60005b828110156200041757848901518255600182019150602085019450602081019050620003f0565b8683101562000437578489015162000433601f89168262000327565b8355505b6001600288020188555050505b505050505050565b6143a8806200045c6000396000f3fe6080604052600436106101b75760003560e01c806370a08231116100ec578063b88d4fde1161008a578063da8cc6e811610064578063da8cc6e81461067a578063e985e9c514610696578063f257f548146106d3578063fb37e88314610710576101b7565b8063b88d4fde146105eb578063b8e297f414610614578063c87b56dd1461063d576101b7565b80638e27652a116100c65780638e27652a1461051d578063912c45cf1461055a57806395d89b4114610597578063a22cb465146105c2576101b7565b806370a082311461047857806373e778c5146104b557806374a6b54f146104f2576101b7565b806323b872dd1161015957806342842e0e1161013357806342842e0e146103ac57806342966c68146103d55780634f6ccce7146103fe5780636352211e1461043b576101b7565b806323b872dd1461031d5780632f745c591461034657806336c5d72414610383576101b7565b8063095ea7b311610195578063095ea7b3146102615780630eed3b541461028a57806318160ddd146102c75780631efceb90146102f2576101b7565b806301ffc9a7146101bc57806306fdde03146101f9578063081812fc14610224575b600080fd5b3480156101c857600080fd5b506101e360048036038101906101de9190612a04565b61074d565b6040516101f09190612a4c565b60405180910390f35b34801561020557600080fd5b5061020e6107c7565b60405161021b9190612b00565b60405180910390f35b34801561023057600080fd5b5061024b60048036038101906102469190612b58565b610859565b6040516102589190612bc6565b60405180910390f35b34801561026d57600080fd5b5061028860048036038101906102839190612c0d565b61089f565b005b34801561029657600080fd5b506102b160048036038101906102ac9190612b58565b6109b6565b6040516102be9190612c5c565b60405180910390f35b3480156102d357600080fd5b506102dc6109ce565b6040516102e99190612c5c565b60405180910390f35b3480156102fe57600080fd5b506103076109db565b6040516103149190612d35565b60405180910390f35b34801561032957600080fd5b50610344600480360381019061033f9190612d57565b610a33565b005b34801561035257600080fd5b5061036d60048036038101906103689190612c0d565b610a93565b60405161037a9190612c5c565b60405180910390f35b34801561038f57600080fd5b506103aa60048036038101906103a59190612b58565b610b38565b005b3480156103b857600080fd5b506103d360048036038101906103ce9190612d57565b610c2c565b005b3480156103e157600080fd5b506103fc60048036038101906103f79190612b58565b610c4c565b005b34801561040a57600080fd5b5061042560048036038101906104209190612b58565b610d26565b6040516104329190612c5c565b60405180910390f35b34801561044757600080fd5b50610462600480360381019061045d9190612b58565b610d97565b60405161046f9190612bc6565b60405180910390f35b34801561048457600080fd5b5061049f600480360381019061049a9190612daa565b610e48565b6040516104ac9190612c5c565b60405180910390f35b3480156104c157600080fd5b506104dc60048036038101906104d79190612b58565b610eff565b6040516104e99190612c5c565b60405180910390f35b3480156104fe57600080fd5b50610507610f23565b6040516105149190612f33565b60405180910390f35b34801561052957600080fd5b50610544600480360381019061053f9190612b58565b611021565b6040516105519190612b00565b60405180910390f35b34801561056657600080fd5b50610581600480360381019061057c9190612b58565b6110c1565b60405161058e9190612c5c565b60405180910390f35b3480156105a357600080fd5b506105ac6110de565b6040516105b99190612b00565b60405180910390f35b3480156105ce57600080fd5b506105e960048036038101906105e49190612f81565b611170565b005b3480156105f757600080fd5b50610612600480360381019061060d91906130f6565b611186565b005b34801561062057600080fd5b5061063b60048036038101906106369190613179565b6111e8565b005b34801561064957600080fd5b50610664600480360381019061065f9190612b58565b61138b565b6040516106719190612b00565b60405180910390f35b610694600480360381019061068f9190612b58565b611430565b005b3480156106a257600080fd5b506106bd60048036038101906106b891906131b9565b611734565b6040516106ca9190612a4c565b60405180910390f35b3480156106df57600080fd5b506106fa60048036038101906106f59190612daa565b6117c8565b6040516107079190612f33565b60405180910390f35b34801561071c57600080fd5b506107376004803603810190610732919061329a565b6118bc565b6040516107449190612c5c565b60405180910390f35b60007f780e9d63000000000000000000000000000000000000000000000000000000007bffffffffffffffffffffffffffffffffffffffffffffffffffffffff1916827bffffffffffffffffffffffffffffffffffffffffffffffffffffffff191614806107c057506107bf8261190a565b5b9050919050565b6060600080546107d690613312565b80601f016020809104026020016040519081016040528092919081815260200182805461080290613312565b801561084f5780601f106108245761010080835404028352916020019161084f565b820191906000526020600020905b81548152906001019060200180831161083257829003601f168201915b5050505050905090565b6000610864826119ec565b6004600083815260200190815260200160002060009054906101000a900473ffffffffffffffffffffffffffffffffffffffff169050919050565b60006108aa82610d97565b90508073ffffffffffffffffffffffffffffffffffffffff168373ffffffffffffffffffffffffffffffffffffffff160361091a576040517f08c379a0000000000000000000000000000000000000000000000000000000008152600401610911906133b5565b60405180910390fd5b8073ffffffffffffffffffffffffffffffffffffffff16610939611a37565b73ffffffffffffffffffffffffffffffffffffffff161480610968575061096781610962611a37565b611734565b5b6109a7576040517f08c379a000000000000000000000000000000000000000000000000000000000815260040161099e90613447565b60405180910390fd5b6109b18383611a3f565b505050565b600d6020528060005260406000206000915090505481565b6000600880549050905090565b6060600e805480602002602001604051908101604052809291908181526020018280548015610a2957602002820191906000526020600020905b815481526020019060010190808311610a15575b5050505050905090565b610a44610a3e611a37565b82611af8565b610a83576040517f08c379a0000000000000000000000000000000000000000000000000000000008152600401610a7a906134d9565b60405180910390fd5b610a8e838383611b8d565b505050565b6000610a9e83610e48565b8210610adf576040517f08c379a0000000000000000000000000000000000000000000000000000000008152600401610ad69061356b565b60405180910390fd5b600660008473ffffffffffffffffffffffffffffffffffffffff1673ffffffffffffffffffffffffffffffffffffffff168152602001908152602001600020600083815260200190815260200160002054905092915050565b6000600d60008381526020019081526020016000208190555060005b600e80549050811015610c28576000600d6000600e8481548110610b7b57610b7a61358b565b5b906000526020600020015481526020019081526020016000205403610c1557600e6001600e80549050610bae91906135e9565b81548110610bbf57610bbe61358b565b5b9060005260206000200154600e8281548110610bde57610bdd61358b565b5b9060005260206000200181905550600e805480610bfe57610bfd61361d565b5b600190038181906000526020600020016000905590555b8080610c209061364c565b915050610b54565b5050565b610c4783838360405180602001604052806000815250611186565b505050565b6000610c5782610d97565b90503373ffffffffffffffffffffffffffffffffffffffff168173ffffffffffffffffffffffffffffffffffffffff1614610cc7576040517f08c379a0000000000000000000000000000000000000000000000000000000008152600401610cbe906136e0565b60405180910390fd5b610cd18130611734565b610d10576040517f08c379a0000000000000000000000000000000000000000000000000000000008152600401610d0790613772565b60405180910390fd5b610d1982611df3565b610d2282610b38565b5050565b6000610d306109ce565b8210610d71576040517f08c379a0000000000000000000000000000000000000000000000000000000008152600401610d6890613804565b60405180910390fd5b60088281548110610d8557610d8461358b565b5b90600052602060002001549050919050565b6000806002600084815260200190815260200160002060009054906101000a900473ffffffffffffffffffffffffffffffffffffffff169050600073ffffffffffffffffffffffffffffffffffffffff168173ffffffffffffffffffffffffffffffffffffffff1603610e3f576040517f08c379a0000000000000000000000000000000000000000000000000000000008152600401610e3690613870565b60405180910390fd5b80915050919050565b60008073ffffffffffffffffffffffffffffffffffffffff168273ffffffffffffffffffffffffffffffffffffffff1603610eb8576040517f08c379a0000000000000000000000000000000000000000000000000000000008152600401610eaf90613902565b60405180910390fd5b600360008373ffffffffffffffffffffffffffffffffffffffff1673ffffffffffffffffffffffffffffffffffffffff168152602001908152602001600020549050919050565b600e8181548110610f0f57600080fd5b906000526020600020016000915090505481565b60606000610f2f6109db565b90506000815167ffffffffffffffff811115610f4e57610f4d612fcb565b5b604051908082528060200260200182016040528015610f8757816020015b610f74612977565b815260200190600190039081610f6c5790505b50905060005b8251811015611018576000838281518110610fab57610faa61358b565b5b602002602001015190506000610fc0826110c1565b90506040518060600160405280838152602001610fdc8461138b565b815260200182815250848481518110610ff857610ff761358b565b5b6020026020010181905250505080806110109061364c565b915050610f8d565b50809250505090565b600c602052806000526040600020600091509050805461104090613312565b80601f016020809104026020016040519081016040528092919081815260200182805461106c90613312565b80156110b95780601f1061108e576101008083540402835291602001916110b9565b820191906000526020600020905b81548152906001019060200180831161109c57829003601f168201915b505050505081565b6000600d6000838152602001908152602001600020549050919050565b6060600180546110ed90613312565b80601f016020809104026020016040519081016040528092919081815260200182805461111990613312565b80156111665780601f1061113b57610100808354040283529160200191611166565b820191906000526020600020905b81548152906001019060200180831161114957829003601f168201915b5050505050905090565b61118261117b611a37565b8383611f10565b5050565b611197611191611a37565b83611af8565b6111d6576040517f08c379a00000000000000000000000000000000000000000000000000000000081526004016111cd906134d9565b60405180910390fd5b6111e28484848461207c565b50505050565b60006111f383610d97565b90503373ffffffffffffffffffffffffffffffffffffffff168173ffffffffffffffffffffffffffffffffffffffff1614611263576040517f08c379a000000000000000000000000000000000000000000000000000000000815260040161125a9061396e565b60405180910390fd5b600082116112a6576040517f08c379a000000000000000000000000000000000000000000000000000000000815260040161129d906139da565b60405180910390fd5b6000600d600085815260200190815260200160002054146112fc576040517f08c379a00000000000000000000000000000000000000000000000000000000081526004016112f390613a6c565b60405180910390fd5b6113068130611734565b611345576040517f08c379a000000000000000000000000000000000000000000000000000000000815260040161133c90613772565b60405180910390fd5b81600d600085815260200190815260200160002081905550600e839080600181540180825580915050600190039060005260206000200160009091909190915055505050565b6060600c600083815260200190815260200160002080546113ab90613312565b80601f01602080910402602001604051908101604052809291908181526020018280546113d790613312565b80156114245780601f106113f957610100808354040283529160200191611424565b820191906000526020600020905b81548152906001019060200180831161140757829003601f168201915b50505050509050919050565b6000600d6000838152602001908152602001600020549050600061145383610d97565b905060008211611498576040517f08c379a000000000000000000000000000000000000000000000000000000000815260040161148f90613ad8565b60405180910390fd5b348211156114db576040517f08c379a00000000000000000000000000000000000000000000000000000000081526004016114d290613b44565b60405180910390fd5b3373ffffffffffffffffffffffffffffffffffffffff168173ffffffffffffffffffffffffffffffffffffffff1603611549576040517f08c379a000000000000000000000000000000000000000000000000000000000815260040161154090613bb0565b60405180910390fd5b6115538130611734565b611592576040517f08c379a000000000000000000000000000000000000000000000000000000000815260040161158990613772565b60405180910390fd5b600b60009054906101000a900473ffffffffffffffffffffffffffffffffffffffff1673ffffffffffffffffffffffffffffffffffffffff166108fc6103e86103e7856115df9190613bd0565b6115e99190613c59565b9081150290604051600060405180830381858888f19350505050158015611614573d6000803e3d6000fd5b508073ffffffffffffffffffffffffffffffffffffffff166108fc839081150290604051600060405180830381858888f1935050505015801561165b573d6000803e3d6000fd5b50348210156116b7573373ffffffffffffffffffffffffffffffffffffffff166108fc833461168a91906135e9565b9081150290604051600060405180830381858888f193505050501580156116b5573d6000803e3d6000fd5b505b3073ffffffffffffffffffffffffffffffffffffffff166342842e0e8233866040518463ffffffff1660e01b81526004016116f493929190613c8a565b600060405180830381600087803b15801561170e57600080fd5b505af1158015611722573d6000803e3d6000fd5b5050505061172f83610b38565b505050565b6000600560008473ffffffffffffffffffffffffffffffffffffffff1673ffffffffffffffffffffffffffffffffffffffff16815260200190815260200160002060008373ffffffffffffffffffffffffffffffffffffffff1673ffffffffffffffffffffffffffffffffffffffff16815260200190815260200160002060009054906101000a900460ff16905092915050565b606060006117d583610e48565b905060008167ffffffffffffffff8111156117f3576117f2612fcb565b5b60405190808252806020026020018201604052801561182c57816020015b611819612977565b8152602001906001900390816118115790505b50905060005b828110156118b15760006118468683610a93565b905060006118538261138b565b90506000611860836110c1565b90506040518060600160405280848152602001838152602001828152508585815181106118905761188f61358b565b5b602002602001018190525050505080806118a99061364c565b915050611832565b508092505050919050565b60006118c8600a6120d8565b60006118d4600a6120ee565b905082600c600083815260200190815260200160002090816118f69190613e6d565b5061190133826120fc565b80915050919050565b60007f80ac58cd000000000000000000000000000000000000000000000000000000007bffffffffffffffffffffffffffffffffffffffffffffffffffffffff1916827bffffffffffffffffffffffffffffffffffffffffffffffffffffffff191614806119d557507f5b5e139f000000000000000000000000000000000000000000000000000000007bffffffffffffffffffffffffffffffffffffffffffffffffffffffff1916827bffffffffffffffffffffffffffffffffffffffffffffffffffffffff1916145b806119e557506119e4826122d5565b5b9050919050565b6119f58161233f565b611a34576040517f08c379a0000000000000000000000000000000000000000000000000000000008152600401611a2b90613870565b60405180910390fd5b50565b600033905090565b816004600083815260200190815260200160002060006101000a81548173ffffffffffffffffffffffffffffffffffffffff021916908373ffffffffffffffffffffffffffffffffffffffff160217905550808273ffffffffffffffffffffffffffffffffffffffff16611ab283610d97565b73ffffffffffffffffffffffffffffffffffffffff167f8c5be1e5ebec7d5bd14f71427d1e84f3dd0314c0f7b2291e5b200ac8c7c3b92560405160405180910390a45050565b600080611b0483610d97565b90508073ffffffffffffffffffffffffffffffffffffffff168473ffffffffffffffffffffffffffffffffffffffff161480611b465750611b458185611734565b5b80611b8457508373ffffffffffffffffffffffffffffffffffffffff16611b6c84610859565b73ffffffffffffffffffffffffffffffffffffffff16145b91505092915050565b8273ffffffffffffffffffffffffffffffffffffffff16611bad82610d97565b73ffffffffffffffffffffffffffffffffffffffff1614611c03576040517f08c379a0000000000000000000000000000000000000000000000000000000008152600401611bfa90613fb1565b60405180910390fd5b600073ffffffffffffffffffffffffffffffffffffffff168273ffffffffffffffffffffffffffffffffffffffff1603611c72576040517f08c379a0000000000000000000000000000000000000000000000000000000008152600401611c6990614043565b60405180910390fd5b611c7d8383836123ab565b611c88600082611a3f565b6001600360008573ffffffffffffffffffffffffffffffffffffffff1673ffffffffffffffffffffffffffffffffffffffff1681526020019081526020016000206000828254611cd891906135e9565b925050819055506001600360008473ffffffffffffffffffffffffffffffffffffffff1673ffffffffffffffffffffffffffffffffffffffff1681526020019081526020016000206000828254611d2f9190614063565b92505081905550816002600083815260200190815260200160002060006101000a81548173ffffffffffffffffffffffffffffffffffffffff021916908373ffffffffffffffffffffffffffffffffffffffff160217905550808273ffffffffffffffffffffffffffffffffffffffff168473ffffffffffffffffffffffffffffffffffffffff167fddf252ad1be2c89b69c2b068fc378daa952ba7f163c4a11628f55a4df523b3ef60405160405180910390a4611dee8383836124bd565b505050565b6000611dfe82610d97565b9050611e0c816000846123ab565b611e17600083611a3f565b6001600360008373ffffffffffffffffffffffffffffffffffffffff1673ffffffffffffffffffffffffffffffffffffffff1681526020019081526020016000206000828254611e6791906135e9565b925050819055506002600083815260200190815260200160002060006101000a81549073ffffffffffffffffffffffffffffffffffffffff021916905581600073ffffffffffffffffffffffffffffffffffffffff168273ffffffffffffffffffffffffffffffffffffffff167fddf252ad1be2c89b69c2b068fc378daa952ba7f163c4a11628f55a4df523b3ef60405160405180910390a4611f0c816000846124bd565b5050565b8173ffffffffffffffffffffffffffffffffffffffff168373ffffffffffffffffffffffffffffffffffffffff1603611f7e576040517f08c379a0000000000000000000000000000000000000000000000000000000008152600401611f7590614105565b60405180910390fd5b80600560008573ffffffffffffffffffffffffffffffffffffffff1673ffffffffffffffffffffffffffffffffffffffff16815260200190815260200160002060008473ffffffffffffffffffffffffffffffffffffffff1673ffffffffffffffffffffffffffffffffffffffff16815260200190815260200160002060006101000a81548160ff0219169083151502179055508173ffffffffffffffffffffffffffffffffffffffff168373ffffffffffffffffffffffffffffffffffffffff167f17307eab39ab6107e8899845ad3d59bd9653f200f220920489ca2b5937696c318360405161206f9190612a4c565b60405180910390a3505050565b612087848484611b8d565b612093848484846124c2565b6120d2576040517f08c379a00000000000000000000000000000000000000000000000000000000081526004016120c990614197565b60405180910390fd5b50505050565b6001816000016000828254019250508190555050565b600081600001549050919050565b600073ffffffffffffffffffffffffffffffffffffffff168273ffffffffffffffffffffffffffffffffffffffff160361216b576040517f08c379a000000000000000000000000000000000000000000000000000000000815260040161216290614203565b60405180910390fd5b6121748161233f565b156121b4576040517f08c379a00000000000000000000000000000000000000000000000000000000081526004016121ab9061426f565b60405180910390fd5b6121c0600083836123ab565b6001600360008473ffffffffffffffffffffffffffffffffffffffff1673ffffffffffffffffffffffffffffffffffffffff16815260200190815260200160002060008282546122109190614063565b92505081905550816002600083815260200190815260200160002060006101000a81548173ffffffffffffffffffffffffffffffffffffffff021916908373ffffffffffffffffffffffffffffffffffffffff160217905550808273ffffffffffffffffffffffffffffffffffffffff16600073ffffffffffffffffffffffffffffffffffffffff167fddf252ad1be2c89b69c2b068fc378daa952ba7f163c4a11628f55a4df523b3ef60405160405180910390a46122d1600083836124bd565b5050565b60007f01ffc9a7000000000000000000000000000000000000000000000000000000007bffffffffffffffffffffffffffffffffffffffffffffffffffffffff1916827bffffffffffffffffffffffffffffffffffffffffffffffffffffffff1916149050919050565b60008073ffffffffffffffffffffffffffffffffffffffff166002600084815260200190815260200160002060009054906101000a900473ffffffffffffffffffffffffffffffffffffffff1673ffffffffffffffffffffffffffffffffffffffff1614159050919050565b6123b6838383612649565b600073ffffffffffffffffffffffffffffffffffffffff168373ffffffffffffffffffffffffffffffffffffffff16036123f8576123f38161264e565b612437565b8173ffffffffffffffffffffffffffffffffffffffff168373ffffffffffffffffffffffffffffffffffffffff1614612436576124358382612697565b5b5b600073ffffffffffffffffffffffffffffffffffffffff168273ffffffffffffffffffffffffffffffffffffffff16036124795761247481612804565b6124b8565b8273ffffffffffffffffffffffffffffffffffffffff168273ffffffffffffffffffffffffffffffffffffffff16146124b7576124b682826128d5565b5b5b505050565b505050565b60006124e38473ffffffffffffffffffffffffffffffffffffffff16612954565b1561263c578373ffffffffffffffffffffffffffffffffffffffff1663150b7a0261250c611a37565b8786866040518563ffffffff1660e01b815260040161252e94939291906142e4565b6020604051808303816000875af192505050801561256a57506040513d601f19601f820116820180604052508101906125679190614345565b60015b6125ec573d806000811461259a576040519150601f19603f3d011682016040523d82523d6000602084013e61259f565b606091505b5060008151036125e4576040517f08c379a00000000000000000000000000000000000000000000000000000000081526004016125db90614197565b60405180910390fd5b805181602001fd5b63150b7a0260e01b7bffffffffffffffffffffffffffffffffffffffffffffffffffffffff1916817bffffffffffffffffffffffffffffffffffffffffffffffffffffffff191614915050612641565b600190505b949350505050565b505050565b6008805490506009600083815260200190815260200160002081905550600881908060018154018082558091505060019003906000526020600020016000909190919091505550565b600060016126a484610e48565b6126ae91906135e9565b9050600060076000848152602001908152602001600020549050818114612793576000600660008673ffffffffffffffffffffffffffffffffffffffff1673ffffffffffffffffffffffffffffffffffffffff168152602001908152602001600020600084815260200190815260200160002054905080600660008773ffffffffffffffffffffffffffffffffffffffff1673ffffffffffffffffffffffffffffffffffffffff168152602001908152602001600020600084815260200190815260200160002081905550816007600083815260200190815260200160002081905550505b6007600084815260200190815260200160002060009055600660008573ffffffffffffffffffffffffffffffffffffffff1673ffffffffffffffffffffffffffffffffffffffff16815260200190815260200160002060008381526020019081526020016000206000905550505050565b6000600160088054905061281891906135e9565b90506000600960008481526020019081526020016000205490506000600883815481106128485761284761358b565b5b90600052602060002001549050806008838154811061286a5761286961358b565b5b9060005260206000200181905550816009600083815260200190815260200160002081905550600960008581526020019081526020016000206000905560088054806128b9576128b861361d565b5b6001900381819060005260206000200160009055905550505050565b60006128e083610e48565b905081600660008573ffffffffffffffffffffffffffffffffffffffff1673ffffffffffffffffffffffffffffffffffffffff168152602001908152602001600020600083815260200190815260200160002081905550806007600084815260200190815260200160002081905550505050565b6000808273ffffffffffffffffffffffffffffffffffffffff163b119050919050565b60405180606001604052806000815260200160608152602001600081525090565b6000604051905090565b600080fd5b600080fd5b60007fffffffff0000000000000000000000000000000000000000000000000000000082169050919050565b6129e1816129ac565b81146129ec57600080fd5b50565b6000813590506129fe816129d8565b92915050565b600060208284031215612a1a57612a196129a2565b5b6000612a28848285016129ef565b91505092915050565b60008115159050919050565b612a4681612a31565b82525050565b6000602082019050612a616000830184612a3d565b92915050565b600081519050919050565b600082825260208201905092915050565b60005b83811015612aa1578082015181840152602081019050612a86565b83811115612ab0576000848401525b50505050565b6000601f19601f8301169050919050565b6000612ad282612a67565b612adc8185612a72565b9350612aec818560208601612a83565b612af581612ab6565b840191505092915050565b60006020820190508181036000830152612b1a8184612ac7565b905092915050565b6000819050919050565b612b3581612b22565b8114612b4057600080fd5b50565b600081359050612b5281612b2c565b92915050565b600060208284031215612b6e57612b6d6129a2565b5b6000612b7c84828501612b43565b91505092915050565b600073ffffffffffffffffffffffffffffffffffffffff82169050919050565b6000612bb082612b85565b9050919050565b612bc081612ba5565b82525050565b6000602082019050612bdb6000830184612bb7565b92915050565b612bea81612ba5565b8114612bf557600080fd5b50565b600081359050612c0781612be1565b92915050565b60008060408385031215612c2457612c236129a2565b5b6000612c3285828601612bf8565b9250506020612c4385828601612b43565b9150509250929050565b612c5681612b22565b82525050565b6000602082019050612c716000830184612c4d565b92915050565b600081519050919050565b600082825260208201905092915050565b6000819050602082019050919050565b612cac81612b22565b82525050565b6000612cbe8383612ca3565b60208301905092915050565b6000602082019050919050565b6000612ce282612c77565b612cec8185612c82565b9350612cf783612c93565b8060005b83811015612d28578151612d0f8882612cb2565b9750612d1a83612cca565b925050600181019050612cfb565b5085935050505092915050565b60006020820190508181036000830152612d4f8184612cd7565b905092915050565b600080600060608486031215612d7057612d6f6129a2565b5b6000612d7e86828701612bf8565b9350506020612d8f86828701612bf8565b9250506040612da086828701612b43565b9150509250925092565b600060208284031215612dc057612dbf6129a2565b5b6000612dce84828501612bf8565b91505092915050565b600081519050919050565b600082825260208201905092915050565b6000819050602082019050919050565b600082825260208201905092915050565b6000612e1f82612a67565b612e298185612e03565b9350612e39818560208601612a83565b612e4281612ab6565b840191505092915050565b6000606083016000830151612e656000860182612ca3565b5060208301518482036020860152612e7d8282612e14565b9150506040830151612e926040860182612ca3565b508091505092915050565b6000612ea98383612e4d565b905092915050565b6000602082019050919050565b6000612ec982612dd7565b612ed38185612de2565b935083602082028501612ee585612df3565b8060005b85811015612f215784840389528151612f028582612e9d565b9450612f0d83612eb1565b925060208a01995050600181019050612ee9565b50829750879550505050505092915050565b60006020820190508181036000830152612f4d8184612ebe565b905092915050565b612f5e81612a31565b8114612f6957600080fd5b50565b600081359050612f7b81612f55565b92915050565b60008060408385031215612f9857612f976129a2565b5b6000612fa685828601612bf8565b9250506020612fb785828601612f6c565b9150509250929050565b600080fd5b600080fd5b7f4e487b7100000000000000000000000000000000000000000000000000000000600052604160045260246000fd5b61300382612ab6565b810181811067ffffffffffffffff8211171561302257613021612fcb565b5b80604052505050565b6000613035612998565b90506130418282612ffa565b919050565b600067ffffffffffffffff82111561306157613060612fcb565b5b61306a82612ab6565b9050602081019050919050565b82818337600083830152505050565b600061309961309484613046565b61302b565b9050828152602081018484840111156130b5576130b4612fc6565b5b6130c0848285613077565b509392505050565b600082601f8301126130dd576130dc612fc1565b5b81356130ed848260208601613086565b91505092915050565b600080600080608085870312156131105761310f6129a2565b5b600061311e87828801612bf8565b945050602061312f87828801612bf8565b935050604061314087828801612b43565b925050606085013567ffffffffffffffff811115613161576131606129a7565b5b61316d878288016130c8565b91505092959194509250565b600080604083850312156131905761318f6129a2565b5b600061319e85828601612b43565b92505060206131af85828601612b43565b9150509250929050565b600080604083850312156131d0576131cf6129a2565b5b60006131de85828601612bf8565b92505060206131ef85828601612bf8565b9150509250929050565b600067ffffffffffffffff82111561321457613213612fcb565b5b61321d82612ab6565b9050602081019050919050565b600061323d613238846131f9565b61302b565b90508281526020810184848401111561325957613258612fc6565b5b613264848285613077565b509392505050565b600082601f83011261328157613280612fc1565b5b813561329184826020860161322a565b91505092915050565b6000602082840312156132b0576132af6129a2565b5b600082013567ffffffffffffffff8111156132ce576132cd6129a7565b5b6132da8482850161326c565b91505092915050565b7f4e487b7100000000000000000000000000000000000000000000000000000000600052602260045260246000fd5b6000600282049050600182168061332a57607f821691505b60208210810361333d5761333c6132e3565b5b50919050565b7f4552433732313a20617070726f76616c20746f2063757272656e74206f776e6560008201527f7200000000000000000000000000000000000000000000000000000000000000602082015250565b600061339f602183612a72565b91506133aa82613343565b604082019050919050565b600060208201905081810360008301526133ce81613392565b9050919050565b7f4552433732313a20617070726f76652063616c6c6572206973206e6f7420746f60008201527f6b656e206f776e6572206e6f7220617070726f76656420666f7220616c6c0000602082015250565b6000613431603e83612a72565b915061343c826133d5565b604082019050919050565b6000602082019050818103600083015261346081613424565b9050919050565b7f4552433732313a2063616c6c6572206973206e6f7420746f6b656e206f776e6560008201527f72206e6f7220617070726f766564000000000000000000000000000000000000602082015250565b60006134c3602e83612a72565b91506134ce82613467565b604082019050919050565b600060208201905081810360008301526134f2816134b6565b9050919050565b7f455243373231456e756d657261626c653a206f776e657220696e646578206f7560008201527f74206f6620626f756e6473000000000000000000000000000000000000000000602082015250565b6000613555602b83612a72565b9150613560826134f9565b604082019050919050565b6000602082019050818103600083015261358481613548565b9050919050565b7f4e487b7100000000000000000000000000000000000000000000000000000000600052603260045260246000fd5b7f4e487b7100000000000000000000000000000000000000000000000000000000600052601160045260246000fd5b60006135f482612b22565b91506135ff83612b22565b925082821015613612576136116135ba565b5b828203905092915050565b7f4e487b7100000000000000000000000000000000000000000000000000000000600052603160045260246000fd5b600061365782612b22565b91507fffffffffffffffffffffffffffffffffffffffffffffffffffffffffffffffff8203613689576136886135ba565b5b600182019050919050565b7f63616c6c6572206973206e6f74206e667420746f6b656e206f776e65722e0000600082015250565b60006136ca601e83612a72565b91506136d582613694565b602082019050919050565b600060208201905081810360008301526136f9816136bd565b9050919050565b7f6e667420746f6b656e206f776e657220646964206e6f7420617070726f76652060008201527f746f6b656e2e0000000000000000000000000000000000000000000000000000602082015250565b600061375c602683612a72565b915061376782613700565b604082019050919050565b6000602082019050818103600083015261378b8161374f565b9050919050565b7f455243373231456e756d657261626c653a20676c6f62616c20696e646578206f60008201527f7574206f6620626f756e64730000000000000000000000000000000000000000602082015250565b60006137ee602c83612a72565b91506137f982613792565b604082019050919050565b6000602082019050818103600083015261381d816137e1565b9050919050565b7f4552433732313a20696e76616c696420746f6b656e2049440000000000000000600082015250565b600061385a601883612a72565b915061386582613824565b602082019050919050565b600060208201905081810360008301526138898161384d565b9050919050565b7f4552433732313a2061646472657373207a65726f206973206e6f74206120766160008201527f6c6964206f776e65720000000000000000000000000000000000000000000000602082015250565b60006138ec602983612a72565b91506138f782613890565b604082019050919050565b6000602082019050818103600083015261391b816138df565b9050919050565b7f43616c6c6572206973206e6f74206e667420746f6b656e206f776e65722e0000600082015250565b6000613958601e83612a72565b915061396382613922565b602082019050919050565b600060208201905081810360008301526139878161394b565b9050919050565b7f5072696365206973207a65726f206f72206c6f7765722e000000000000000000600082015250565b60006139c4601783612a72565b91506139cf8261398e565b602082019050919050565b600060208201905081810360008301526139f3816139b7565b9050919050565b7f54686973206e667420746f6b656e20697320616c7265616479206f6e2073616c60008201527f652e000000000000000000000000000000000000000000000000000000000000602082015250565b6000613a56602283612a72565b9150613a61826139fa565b604082019050919050565b60006020820190508181036000830152613a8581613a49565b9050919050565b7f6e667420746f6b656e206e6f742073616c652e00000000000000000000000000600082015250565b6000613ac2601383612a72565b9150613acd82613a8c565b602082019050919050565b60006020820190508181036000830152613af181613ab5565b9050919050565b7f63616c6c65722073656e74206c6f776572207468616e2070726963652e000000600082015250565b6000613b2e601d83612a72565b9150613b3982613af8565b602082019050919050565b60006020820190508181036000830152613b5d81613b21565b9050919050565b7f63616c6c6572206973206e667420746f6b656e206f776e65722e000000000000600082015250565b6000613b9a601a83612a72565b9150613ba582613b64565b602082019050919050565b60006020820190508181036000830152613bc981613b8d565b9050919050565b6000613bdb82612b22565b9150613be683612b22565b9250817fffffffffffffffffffffffffffffffffffffffffffffffffffffffffffffffff0483118215151615613c1f57613c1e6135ba565b5b828202905092915050565b7f4e487b7100000000000000000000000000000000000000000000000000000000600052601260045260246000fd5b6000613c6482612b22565b9150613c6f83612b22565b925082613c7f57613c7e613c2a565b5b828204905092915050565b6000606082019050613c9f6000830186612bb7565b613cac6020830185612bb7565b613cb96040830184612c4d565b949350505050565b60008190508160005260206000209050919050565b60006020601f8301049050919050565b600082821b905092915050565b600060088302613d237fffffffffffffffffffffffffffffffffffffffffffffffffffffffffffffffff82613ce6565b613d2d8683613ce6565b95508019841693508086168417925050509392505050565b6000819050919050565b6000613d6a613d65613d6084612b22565b613d45565b612b22565b9050919050565b6000819050919050565b613d8483613d4f565b613d98613d9082613d71565b848454613cf3565b825550505050565b600090565b613dad613da0565b613db8818484613d7b565b505050565b5b81811015613ddc57613dd1600082613da5565b600181019050613dbe565b5050565b601f821115613e2157613df281613cc1565b613dfb84613cd6565b81016020851015613e0a578190505b613e1e613e1685613cd6565b830182613dbd565b50505b505050565b600082821c905092915050565b6000613e4460001984600802613e26565b1980831691505092915050565b6000613e5d8383613e33565b9150826002028217905092915050565b613e7682612a67565b67ffffffffffffffff811115613e8f57613e8e612fcb565b5b613e998254613312565b613ea4828285613de0565b600060209050601f831160018114613ed75760008415613ec5578287015190505b613ecf8582613e51565b865550613f37565b601f198416613ee586613cc1565b60005b82811015613f0d57848901518255600182019150602085019450602081019050613ee8565b86831015613f2a5784890151613f26601f891682613e33565b8355505b6001600288020188555050505b505050505050565b7f4552433732313a207472616e736665722066726f6d20696e636f72726563742060008201527f6f776e6572000000000000000000000000000000000000000000000000000000602082015250565b6000613f9b602583612a72565b9150613fa682613f3f565b604082019050919050565b60006020820190508181036000830152613fca81613f8e565b9050919050565b7f4552433732313a207472616e7366657220746f20746865207a65726f2061646460008201527f7265737300000000000000000000000000000000000000000000000000000000602082015250565b600061402d602483612a72565b915061403882613fd1565b604082019050919050565b6000602082019050818103600083015261405c81614020565b9050919050565b600061406e82612b22565b915061407983612b22565b9250827fffffffffffffffffffffffffffffffffffffffffffffffffffffffffffffffff038211156140ae576140ad6135ba565b5b828201905092915050565b7f4552433732313a20617070726f766520746f2063616c6c657200000000000000600082015250565b60006140ef601983612a72565b91506140fa826140b9565b602082019050919050565b6000602082019050818103600083015261411e816140e2565b9050919050565b7f4552433732313a207472616e7366657220746f206e6f6e20455243373231526560008201527f63656976657220696d706c656d656e7465720000000000000000000000000000602082015250565b6000614181603283612a72565b915061418c82614125565b604082019050919050565b600060208201905081810360008301526141b081614174565b9050919050565b7f4552433732313a206d696e7420746f20746865207a65726f2061646472657373600082015250565b60006141ed602083612a72565b91506141f8826141b7565b602082019050919050565b6000602082019050818103600083015261421c816141e0565b9050919050565b7f4552433732313a20746f6b656e20616c7265616479206d696e74656400000000600082015250565b6000614259601c83612a72565b915061426482614223565b602082019050919050565b600060208201905081810360008301526142888161424c565b9050919050565b600081519050919050565b600082825260208201905092915050565b60006142b68261428f565b6142c0818561429a565b93506142d0818560208601612a83565b6142d981612ab6565b840191505092915050565b60006080820190506142f96000830187612bb7565b6143066020830186612bb7565b6143136040830185612c4d565b818103606083015261432581846142ab565b905095945050505050565b60008151905061433f816129d8565b92915050565b60006020828403121561435b5761435a6129a2565b5b600061436984828501614330565b9150509291505056fea2646970667358221220ecf5ef13b8aaae1b5ee28637ef6ecc90c4f804af43ca38ca6f85be91b30e63cf64736f6c634300080f0033",
  "immutableReferences": {},
  "source": "// contracts/BrickTokenERC721.sol\n// SPDX-License-Identifier: MIT\n\npragma solidity ^0.8.7;\n\nimport '@openzeppelin/contracts/token/ERC721/extensions/ERC721Enumerable.sol';\nimport '@openzeppelin/contracts/utils/Counters.sol';\n\ncontract BrickTokenERC721 is ERC721Enumerable {\n    using Counters for Counters.Counter;\n    Counters.Counter private _tokenId;\n\n    // contract \n    address payable owner;\n\n    // tokenId mapping token URI\n    mapping(uint256 => string) public _nftTokenURIs;\n    // tokenId mapping token \n    mapping(uint256 => uint256) public _nftTokenPrices;\n\n    //     \n    uint256[] public onSaleNftTokenArray;\n\n    constructor() ERC721('BrickToken', 'BT') {\n        owner = payable(msg.sender);\n    }\n\n    // tokenId  tokenURI  \n    function tokenURI(uint256 tokenId)\n        public\n        view\n        override\n        returns (string memory)\n    {\n        return _nftTokenURIs[tokenId];\n    }\n\n    // NFT  \n    function mintNFT(string memory _tokenURI) public returns (uint256) {\n        _tokenId.increment();\n        uint256 tokenId = _tokenId.current();\n\n        _nftTokenURIs[tokenId] = _tokenURI;\n        _mint(msg.sender, tokenId);\n\n        return tokenId;\n    }\n\n    //    \n    function getNftTokenPrice(uint256 tokenId) public view returns (uint256) {\n        return _nftTokenPrices[tokenId];\n    }\n\n    //     \n    struct NftTokenData {\n        uint256 nftTokenId;\n        string nftTokenURI;\n        uint256 price;\n    }\n\n    //      \n    function getNftTokens(address nftTokenOwner)\n        public\n        view\n        returns (NftTokenData[] memory)\n    {\n        // nftTokenOwner    \n        uint256 balanceLength = balanceOf(nftTokenOwner);\n\n        // for          \n        NftTokenData[] memory nftTokenDatas = new NftTokenData[](balanceLength);\n        for (uint256 i = 0; i < balanceLength; i++) {\n            uint256 nftTokenId = tokenOfOwnerByIndex(nftTokenOwner, i);\n            string memory nftTokenURI = tokenURI(nftTokenId);\n            uint256 nftTokenPrice = getNftTokenPrice(nftTokenId);\n\n            nftTokenDatas[i] = NftTokenData(\n                nftTokenId,\n                nftTokenURI,\n                nftTokenPrice\n            );\n        }\n\n        return nftTokenDatas;\n    }\n\n    //   \n    function setSaleNftToken(uint256 tokenId, uint256 price) public {\n        address nftTokenOwner = ownerOf(tokenId);\n\n        //     \n        require(nftTokenOwner == msg.sender, 'Caller is not nft token owner.');\n        //   0 .\n        require(price > 0, 'Price is zero or lower.');\n        //    0        .\n        require(\n            _nftTokenPrices[tokenId] == 0,\n            'This nft token is already on sale.'\n        );\n        //     \n        require(\n            isApprovedForAll(nftTokenOwner, address(this)),\n            'nft token owner did not approve token.'\n        );\n\n        //       \n        _nftTokenPrices[tokenId] = price;\n        onSaleNftTokenArray.push(tokenId);\n    }\n\n    //       \n    function getSaleNftToken() public view returns (uint256[] memory) {\n        return onSaleNftTokenArray;\n    }\n\n    //       \n    function getSaleNftTokens() public view returns (NftTokenData[] memory) {\n        uint256[] memory onSaleNftToken = getSaleNftToken();\n        NftTokenData[] memory onSaleNftTokens = new NftTokenData[](\n            onSaleNftToken.length\n        );\n\n        for (uint256 i = 0; i < onSaleNftToken.length; i++) {\n            uint256 tokenId = onSaleNftToken[i];\n            uint256 tokenPrice = getNftTokenPrice(tokenId);\n\n            onSaleNftTokens[i] = NftTokenData(\n                tokenId,\n                tokenURI(tokenId),\n                tokenPrice\n            );\n        }\n\n        return onSaleNftTokens;\n    }\n\n    //          \n    function removeToken(uint256 tokenId) public {\n        _nftTokenPrices[tokenId] = 0;\n\n        for (uint256 i = 0; i < onSaleNftTokenArray.length; i++) {\n            if (_nftTokenPrices[onSaleNftTokenArray[i]] == 0) {\n                onSaleNftTokenArray[i] = onSaleNftTokenArray[\n                    onSaleNftTokenArray.length - 1\n                ];\n                onSaleNftTokenArray.pop();\n            }\n        }\n    }\n\n    //  \n    function buyNftToken(uint256 tokenId) public payable {\n        uint256 price = _nftTokenPrices[tokenId];\n        address nftTokenOwner = ownerOf(tokenId);\n\n        //    \n        require(price > 0, 'nft token not sale.');\n        //      \n        require(price <= msg.value, 'caller sent lower than price.');\n        //        \n        require(nftTokenOwner != msg.sender, 'caller is nft token owner.');\n        //     \n        require(\n            isApprovedForAll(nftTokenOwner, address(this)),\n            'nft token owner did not approve token.'\n        );\n\n\tpayable(owner).transfer(price * 999 / 1000);\n        payable(nftTokenOwner).transfer(price);\n        if (price < msg.value)\n            payable(msg.sender).transfer(msg.value - price);\n\n        IERC721(address(this)).safeTransferFrom(\n            nftTokenOwner,\n            msg.sender,\n            tokenId\n        );\n\n        //   \n        removeToken(tokenId);\n    }\n\n    //   \n    function burn(uint256 tokenId) public {\n        address nftTokenOwner = ownerOf(tokenId);\n\n        //    \n        require(nftTokenOwner == msg.sender, 'caller is not nft token owner.');\n        //     \n        require(\n            isApprovedForAll(nftTokenOwner, address(this)),\n            'nft token owner did not approve token.'\n        );\n\n        _burn(tokenId);\n        removeToken(tokenId);\n    }\n}\n",
  "sourcePath": "/home/octo/42brick_backend/contract/contracts/BrickTokenERC721.sol",
  "compiler": {
    "name": "solc",
    "version": "0.8.15+commit.e14f2714.Emscripten.clang"
  },
  "schemaVersion": "3.4.7",
  "updatedAt": "2022-10-04T09:55:11.762Z",
  "networkType": "ethereum",
  "devdoc": {
    "kind": "dev",
    "methods": {
      "approve(address,uint256)": {
        "details": "See {IERC721-approve}."
      },
      "balanceOf(address)": {
        "details": "See {IERC721-balanceOf}."
      },
      "getApproved(uint256)": {
        "details": "See {IERC721-getApproved}."
      },
      "isApprovedForAll(address,address)": {
        "details": "See {IERC721-isApprovedForAll}."
      },
      "name()": {
        "details": "See {IERC721Metadata-name}."
      },
      "ownerOf(uint256)": {
        "details": "See {IERC721-ownerOf}."
      },
      "safeTransferFrom(address,address,uint256)": {
        "details": "See {IERC721-safeTransferFrom}."
      },
      "safeTransferFrom(address,address,uint256,bytes)": {
        "details": "See {IERC721-safeTransferFrom}."
      },
      "setApprovalForAll(address,bool)": {
        "details": "See {IERC721-setApprovalForAll}."
      },
      "supportsInterface(bytes4)": {
        "details": "See {IERC165-supportsInterface}."
      },
      "symbol()": {
        "details": "See {IERC721Metadata-symbol}."
      },
      "tokenByIndex(uint256)": {
        "details": "See {IERC721Enumerable-tokenByIndex}."
      },
      "tokenOfOwnerByIndex(address,uint256)": {
        "details": "See {IERC721Enumerable-tokenOfOwnerByIndex}."
      },
      "tokenURI(uint256)": {
        "details": "See {IERC721Metadata-tokenURI}."
      },
      "totalSupply()": {
        "details": "See {IERC721Enumerable-totalSupply}."
      },
      "transferFrom(address,address,uint256)": {
        "details": "See {IERC721-transferFrom}."
      }
    },
    "version": 1
  },
  "userdoc": {
    "kind": "user",
    "methods": {},
    "version": 1
  }
}