{
  "contractName": "BrickTokenERC721",
  "abi": [
    {
      "inputs": [],
      "stateMutability": "nonpayable",
      "type": "constructor"
    },
    {
      "anonymous": false,
      "inputs": [
        {
          "indexed": true,
          "internalType": "address",
          "name": "owner",
          "type": "address"
        },
        {
          "indexed": true,
          "internalType": "address",
          "name": "approved",
          "type": "address"
        },
        {
          "indexed": true,
          "internalType": "uint256",
          "name": "tokenId",
          "type": "uint256"
        }
      ],
      "name": "Approval",
      "type": "event"
    },
    {
      "anonymous": false,
      "inputs": [
        {
          "indexed": true,
          "internalType": "address",
          "name": "owner",
          "type": "address"
        },
        {
          "indexed": true,
          "internalType": "address",
          "name": "operator",
          "type": "address"
        },
        {
          "indexed": false,
          "internalType": "bool",
          "name": "approved",
          "type": "bool"
        }
      ],
      "name": "ApprovalForAll",
      "type": "event"
    },
    {
      "anonymous": false,
      "inputs": [
        {
          "indexed": true,
          "internalType": "address",
          "name": "from",
          "type": "address"
        },
        {
          "indexed": true,
          "internalType": "address",
          "name": "to",
          "type": "address"
        },
        {
          "indexed": true,
          "internalType": "uint256",
          "name": "tokenId",
          "type": "uint256"
        }
      ],
      "name": "Transfer",
      "type": "event"
    },
    {
      "inputs": [
        {
          "internalType": "uint256",
          "name": "",
          "type": "uint256"
        }
      ],
      "name": "_nftTokenPrices",
      "outputs": [
        {
          "internalType": "uint256",
          "name": "",
          "type": "uint256"
        }
      ],
      "stateMutability": "view",
      "type": "function"
    },
    {
      "inputs": [
        {
          "internalType": "uint256",
          "name": "",
          "type": "uint256"
        }
      ],
      "name": "_nftTokenURIs",
      "outputs": [
        {
          "internalType": "string",
          "name": "",
          "type": "string"
        }
      ],
      "stateMutability": "view",
      "type": "function"
    },
    {
      "inputs": [
        {
          "internalType": "address",
          "name": "to",
          "type": "address"
        },
        {
          "internalType": "uint256",
          "name": "tokenId",
          "type": "uint256"
        }
      ],
      "name": "approve",
      "outputs": [],
      "stateMutability": "nonpayable",
      "type": "function"
    },
    {
      "inputs": [
        {
          "internalType": "address",
          "name": "owner",
          "type": "address"
        }
      ],
      "name": "balanceOf",
      "outputs": [
        {
          "internalType": "uint256",
          "name": "",
          "type": "uint256"
        }
      ],
      "stateMutability": "view",
      "type": "function"
    },
    {
      "inputs": [
        {
          "internalType": "uint256",
          "name": "tokenId",
          "type": "uint256"
        }
      ],
      "name": "getApproved",
      "outputs": [
        {
          "internalType": "address",
          "name": "",
          "type": "address"
        }
      ],
      "stateMutability": "view",
      "type": "function"
    },
    {
      "inputs": [
        {
          "internalType": "address",
          "name": "owner",
          "type": "address"
        },
        {
          "internalType": "address",
          "name": "operator",
          "type": "address"
        }
      ],
      "name": "isApprovedForAll",
      "outputs": [
        {
          "internalType": "bool",
          "name": "",
          "type": "bool"
        }
      ],
      "stateMutability": "view",
      "type": "function"
    },
    {
      "inputs": [],
      "name": "name",
      "outputs": [
        {
          "internalType": "string",
          "name": "",
          "type": "string"
        }
      ],
      "stateMutability": "view",
      "type": "function"
    },
    {
      "inputs": [
        {
          "internalType": "uint256",
          "name": "",
          "type": "uint256"
        }
      ],
      "name": "onSaleNftTokenArray",
      "outputs": [
        {
          "internalType": "uint256",
          "name": "",
          "type": "uint256"
        }
      ],
      "stateMutability": "view",
      "type": "function"
    },
    {
      "inputs": [
        {
          "internalType": "uint256",
          "name": "tokenId",
          "type": "uint256"
        }
      ],
      "name": "ownerOf",
      "outputs": [
        {
          "internalType": "address",
          "name": "",
          "type": "address"
        }
      ],
      "stateMutability": "view",
      "type": "function"
    },
    {
      "inputs": [
        {
          "internalType": "address",
          "name": "from",
          "type": "address"
        },
        {
          "internalType": "address",
          "name": "to",
          "type": "address"
        },
        {
          "internalType": "uint256",
          "name": "tokenId",
          "type": "uint256"
        }
      ],
      "name": "safeTransferFrom",
      "outputs": [],
      "stateMutability": "nonpayable",
      "type": "function"
    },
    {
      "inputs": [
        {
          "internalType": "address",
          "name": "from",
          "type": "address"
        },
        {
          "internalType": "address",
          "name": "to",
          "type": "address"
        },
        {
          "internalType": "uint256",
          "name": "tokenId",
          "type": "uint256"
        },
        {
          "internalType": "bytes",
          "name": "data",
          "type": "bytes"
        }
      ],
      "name": "safeTransferFrom",
      "outputs": [],
      "stateMutability": "nonpayable",
      "type": "function"
    },
    {
      "inputs": [
        {
          "internalType": "address",
          "name": "operator",
          "type": "address"
        },
        {
          "internalType": "bool",
          "name": "approved",
          "type": "bool"
        }
      ],
      "name": "setApprovalForAll",
      "outputs": [],
      "stateMutability": "nonpayable",
      "type": "function"
    },
    {
      "inputs": [
        {
          "internalType": "bytes4",
          "name": "interfaceId",
          "type": "bytes4"
        }
      ],
      "name": "supportsInterface",
      "outputs": [
        {
          "internalType": "bool",
          "name": "",
          "type": "bool"
        }
      ],
      "stateMutability": "view",
      "type": "function"
    },
    {
      "inputs": [],
      "name": "symbol",
      "outputs": [
        {
          "internalType": "string",
          "name": "",
          "type": "string"
        }
      ],
      "stateMutability": "view",
      "type": "function"
    },
    {
      "inputs": [
        {
          "internalType": "uint256",
          "name": "index",
          "type": "uint256"
        }
      ],
      "name": "tokenByIndex",
      "outputs": [
        {
          "internalType": "uint256",
          "name": "",
          "type": "uint256"
        }
      ],
      "stateMutability": "view",
      "type": "function"
    },
    {
      "inputs": [
        {
          "internalType": "address",
          "name": "owner",
          "type": "address"
        },
        {
          "internalType": "uint256",
          "name": "index",
          "type": "uint256"
        }
      ],
      "name": "tokenOfOwnerByIndex",
      "outputs": [
        {
          "internalType": "uint256",
          "name": "",
          "type": "uint256"
        }
      ],
      "stateMutability": "view",
      "type": "function"
    },
    {
      "inputs": [],
      "name": "totalSupply",
      "outputs": [
        {
          "internalType": "uint256",
          "name": "",
          "type": "uint256"
        }
      ],
      "stateMutability": "view",
      "type": "function"
    },
    {
      "inputs": [
        {
          "internalType": "address",
          "name": "from",
          "type": "address"
        },
        {
          "internalType": "address",
          "name": "to",
          "type": "address"
        },
        {
          "internalType": "uint256",
          "name": "tokenId",
          "type": "uint256"
        }
      ],
      "name": "transferFrom",
      "outputs": [],
      "stateMutability": "nonpayable",
      "type": "function"
    },
    {
      "inputs": [
        {
          "internalType": "uint256",
          "name": "tokenId",
          "type": "uint256"
        }
      ],
      "name": "tokenURI",
      "outputs": [
        {
          "internalType": "string",
          "name": "",
          "type": "string"
        }
      ],
      "stateMutability": "view",
      "type": "function"
    },
    {
      "inputs": [
        {
          "internalType": "string",
          "name": "_tokenURI",
          "type": "string"
        }
      ],
      "name": "mintNFT",
      "outputs": [
        {
          "internalType": "uint256",
          "name": "",
          "type": "uint256"
        }
      ],
      "stateMutability": "nonpayable",
      "type": "function"
    },
    {
      "inputs": [
        {
          "internalType": "uint256",
          "name": "tokenId",
          "type": "uint256"
        }
      ],
      "name": "getNftTokenPrice",
      "outputs": [
        {
          "internalType": "uint256",
          "name": "",
          "type": "uint256"
        }
      ],
      "stateMutability": "view",
      "type": "function"
    },
    {
      "inputs": [],
      "name": "getRecentTokenId",
      "outputs": [
        {
          "internalType": "uint256",
          "name": "",
          "type": "uint256"
        }
      ],
      "stateMutability": "view",
      "type": "function"
    },
    {
      "inputs": [
        {
          "internalType": "address",
          "name": "nftTokenOwner",
          "type": "address"
        }
      ],
      "name": "getNftTokens",
      "outputs": [
        {
          "components": [
            {
              "internalType": "uint256",
              "name": "nftTokenId",
              "type": "uint256"
            },
            {
              "internalType": "string",
              "name": "nftTokenURI",
              "type": "string"
            },
            {
              "internalType": "uint256",
              "name": "price",
              "type": "uint256"
            }
          ],
          "internalType": "struct BrickTokenERC721.NftTokenData[]",
          "name": "",
          "type": "tuple[]"
        }
      ],
      "stateMutability": "view",
      "type": "function"
    },
    {
      "inputs": [
        {
          "internalType": "uint256",
          "name": "tokenId",
          "type": "uint256"
        },
        {
          "internalType": "uint256",
          "name": "price",
          "type": "uint256"
        }
      ],
      "name": "setSaleNftToken",
      "outputs": [],
      "stateMutability": "nonpayable",
      "type": "function"
    },
    {
      "inputs": [],
      "name": "getSaleNftToken",
      "outputs": [
        {
          "internalType": "uint256[]",
          "name": "",
          "type": "uint256[]"
        }
      ],
      "stateMutability": "view",
      "type": "function"
    },
    {
      "inputs": [],
      "name": "getSaleNftTokens",
      "outputs": [
        {
          "components": [
            {
              "internalType": "uint256",
              "name": "nftTokenId",
              "type": "uint256"
            },
            {
              "internalType": "string",
              "name": "nftTokenURI",
              "type": "string"
            },
            {
              "internalType": "uint256",
              "name": "price",
              "type": "uint256"
            }
          ],
          "internalType": "struct BrickTokenERC721.NftTokenData[]",
          "name": "",
          "type": "tuple[]"
        }
      ],
      "stateMutability": "view",
      "type": "function"
    },
    {
      "inputs": [
        {
          "internalType": "uint256",
          "name": "tokenId",
          "type": "uint256"
        }
      ],
      "name": "removeToken",
      "outputs": [],
      "stateMutability": "nonpayable",
      "type": "function"
    },
    {
      "inputs": [
        {
          "internalType": "uint256",
          "name": "tokenId",
          "type": "uint256"
        }
      ],
      "name": "buyNftToken",
      "outputs": [],
      "stateMutability": "payable",
      "type": "function"
    },
    {
      "inputs": [
        {
          "internalType": "uint256",
          "name": "tokenId",
          "type": "uint256"
        }
      ],
      "name": "burn",
      "outputs": [],
      "stateMutability": "nonpayable",
      "type": "function"
    }
  ],
  "bytecode": "0x60806040523480156200001157600080fd5b506040518060400160405280600a81526020017f427269636b546f6b656e000000000000000000000000000000000000000000008152506040518060400160405280600281526020017f425400000000000000000000000000000000000000000000000000000000000081525081600090816200008f919062000365565b508060019081620000a1919062000365565b50505033600b60006101000a81548173ffffffffffffffffffffffffffffffffffffffff021916908373ffffffffffffffffffffffffffffffffffffffff1602179055506200044c565b600081519050919050565b7f4e487b7100000000000000000000000000000000000000000000000000000000600052604160045260246000fd5b7f4e487b7100000000000000000000000000000000000000000000000000000000600052602260045260246000fd5b600060028204905060018216806200016d57607f821691505b60208210810362000183576200018262000125565b5b50919050565b60008190508160005260206000209050919050565b60006020601f8301049050919050565b600082821b905092915050565b600060088302620001ed7fffffffffffffffffffffffffffffffffffffffffffffffffffffffffffffffff82620001ae565b620001f98683620001ae565b95508019841693508086168417925050509392505050565b6000819050919050565b6000819050919050565b600062000246620002406200023a8462000211565b6200021b565b62000211565b9050919050565b6000819050919050565b620002628362000225565b6200027a62000271826200024d565b848454620001bb565b825550505050565b600090565b6200029162000282565b6200029e81848462000257565b505050565b5b81811015620002c657620002ba60008262000287565b600181019050620002a4565b5050565b601f8211156200031557620002df8162000189565b620002ea846200019e565b81016020851015620002fa578190505b6200031262000309856200019e565b830182620002a3565b50505b505050565b600082821c905092915050565b60006200033a600019846008026200031a565b1980831691505092915050565b600062000355838362000327565b9150826002028217905092915050565b6200037082620000eb565b67ffffffffffffffff8111156200038c576200038b620000f6565b5b62000398825462000154565b620003a5828285620002ca565b600060209050601f831160018114620003dd5760008415620003c8578287015190505b620003d4858262000347565b86555062000444565b601f198416620003ed8662000189565b60005b828110156200041757848901518255600182019150602085019450602081019050620003f0565b8683101562000437578489015162000433601f89168262000327565b8355505b6001600288020188555050505b505050505050565b614430806200045c6000396000f3fe6080604052600436106101c25760003560e01c80636352211e116100f7578063a22cb46511610095578063da8cc6e811610064578063da8cc6e8146106b0578063e985e9c5146106cc578063f257f54814610709578063fb37e88314610746576101c2565b8063a22cb465146105f8578063b88d4fde14610621578063b8e297f41461064a578063c87b56dd14610673576101c2565b806374a6b54f116100d157806374a6b54f146105285780638e27652a14610553578063912c45cf1461059057806395d89b41146105cd576101c2565b80636352211e1461047157806370a08231146104ae57806373e778c5146104eb576101c2565b806323b872dd1161016457806342842e0e1161013e57806342842e0e146103b757806342966c68146103e05780634f6ccce7146104095780635ee7e98314610446576101c2565b806323b872dd146103285780632f745c591461035157806336c5d7241461038e576101c2565b8063095ea7b3116101a0578063095ea7b31461026c5780630eed3b541461029557806318160ddd146102d25780631efceb90146102fd576101c2565b806301ffc9a7146101c757806306fdde0314610204578063081812fc1461022f575b600080fd5b3480156101d357600080fd5b506101ee60048036038101906101e99190612a8c565b610783565b6040516101fb9190612ad4565b60405180910390f35b34801561021057600080fd5b506102196107fd565b6040516102269190612b88565b60405180910390f35b34801561023b57600080fd5b5061025660048036038101906102519190612be0565b61088f565b6040516102639190612c4e565b60405180910390f35b34801561027857600080fd5b50610293600480360381019061028e9190612c95565b6108d5565b005b3480156102a157600080fd5b506102bc60048036038101906102b79190612be0565b6109ec565b6040516102c99190612ce4565b60405180910390f35b3480156102de57600080fd5b506102e7610a04565b6040516102f49190612ce4565b60405180910390f35b34801561030957600080fd5b50610312610a11565b60405161031f9190612dbd565b60405180910390f35b34801561033457600080fd5b5061034f600480360381019061034a9190612ddf565b610a69565b005b34801561035d57600080fd5b5061037860048036038101906103739190612c95565b610ac9565b6040516103859190612ce4565b60405180910390f35b34801561039a57600080fd5b506103b560048036038101906103b09190612be0565b610b6e565b005b3480156103c357600080fd5b506103de60048036038101906103d99190612ddf565b610c62565b005b3480156103ec57600080fd5b5061040760048036038101906104029190612be0565b610c82565b005b34801561041557600080fd5b50610430600480360381019061042b9190612be0565b610d5c565b60405161043d9190612ce4565b60405180910390f35b34801561045257600080fd5b5061045b610dcd565b6040516104689190612ce4565b60405180910390f35b34801561047d57600080fd5b5061049860048036038101906104939190612be0565b610dde565b6040516104a59190612c4e565b60405180910390f35b3480156104ba57600080fd5b506104d560048036038101906104d09190612e32565b610e8f565b6040516104e29190612ce4565b60405180910390f35b3480156104f757600080fd5b50610512600480360381019061050d9190612be0565b610f46565b60405161051f9190612ce4565b60405180910390f35b34801561053457600080fd5b5061053d610f6a565b60405161054a9190612fbb565b60405180910390f35b34801561055f57600080fd5b5061057a60048036038101906105759190612be0565b611068565b6040516105879190612b88565b60405180910390f35b34801561059c57600080fd5b506105b760048036038101906105b29190612be0565b611108565b6040516105c49190612ce4565b60405180910390f35b3480156105d957600080fd5b506105e2611125565b6040516105ef9190612b88565b60405180910390f35b34801561060457600080fd5b5061061f600480360381019061061a9190613009565b6111b7565b005b34801561062d57600080fd5b506106486004803603810190610643919061317e565b6111cd565b005b34801561065657600080fd5b50610671600480360381019061066c9190613201565b61122f565b005b34801561067f57600080fd5b5061069a60048036038101906106959190612be0565b6113d2565b6040516106a79190612b88565b60405180910390f35b6106ca60048036038101906106c59190612be0565b611477565b005b3480156106d857600080fd5b506106f360048036038101906106ee9190613241565b6117bc565b6040516107009190612ad4565b60405180910390f35b34801561071557600080fd5b50610730600480360381019061072b9190612e32565b611850565b60405161073d9190612fbb565b60405180910390f35b34801561075257600080fd5b5061076d60048036038101906107689190613322565b611944565b60405161077a9190612ce4565b60405180910390f35b60007f780e9d63000000000000000000000000000000000000000000000000000000007bffffffffffffffffffffffffffffffffffffffffffffffffffffffff1916827bffffffffffffffffffffffffffffffffffffffffffffffffffffffff191614806107f657506107f582611992565b5b9050919050565b60606000805461080c9061339a565b80601f01602080910402602001604051908101604052809291908181526020018280546108389061339a565b80156108855780601f1061085a57610100808354040283529160200191610885565b820191906000526020600020905b81548152906001019060200180831161086857829003601f168201915b5050505050905090565b600061089a82611a74565b6004600083815260200190815260200160002060009054906101000a900473ffffffffffffffffffffffffffffffffffffffff169050919050565b60006108e082610dde565b90508073ffffffffffffffffffffffffffffffffffffffff168373ffffffffffffffffffffffffffffffffffffffff1603610950576040517f08c379a00000000000000000000000000000000000000000000000000000000081526004016109479061343d565b60405180910390fd5b8073ffffffffffffffffffffffffffffffffffffffff1661096f611abf565b73ffffffffffffffffffffffffffffffffffffffff16148061099e575061099d81610998611abf565b6117bc565b5b6109dd576040517f08c379a00000000000000000000000000000000000000000000000000000000081526004016109d4906134cf565b60405180910390fd5b6109e78383611ac7565b505050565b600d6020528060005260406000206000915090505481565b6000600880549050905090565b6060600e805480602002602001604051908101604052809291908181526020018280548015610a5f57602002820191906000526020600020905b815481526020019060010190808311610a4b575b5050505050905090565b610a7a610a74611abf565b82611b80565b610ab9576040517f08c379a0000000000000000000000000000000000000000000000000000000008152600401610ab090613561565b60405180910390fd5b610ac4838383611c15565b505050565b6000610ad483610e8f565b8210610b15576040517f08c379a0000000000000000000000000000000000000000000000000000000008152600401610b0c906135f3565b60405180910390fd5b600660008473ffffffffffffffffffffffffffffffffffffffff1673ffffffffffffffffffffffffffffffffffffffff168152602001908152602001600020600083815260200190815260200160002054905092915050565b6000600d60008381526020019081526020016000208190555060005b600e80549050811015610c5e576000600d6000600e8481548110610bb157610bb0613613565b5b906000526020600020015481526020019081526020016000205403610c4b57600e6001600e80549050610be49190613671565b81548110610bf557610bf4613613565b5b9060005260206000200154600e8281548110610c1457610c13613613565b5b9060005260206000200181905550600e805480610c3457610c336136a5565b5b600190038181906000526020600020016000905590555b8080610c56906136d4565b915050610b8a565b5050565b610c7d838383604051806020016040528060008152506111cd565b505050565b6000610c8d82610dde565b90503373ffffffffffffffffffffffffffffffffffffffff168173ffffffffffffffffffffffffffffffffffffffff1614610cfd576040517f08c379a0000000000000000000000000000000000000000000000000000000008152600401610cf490613768565b60405180910390fd5b610d0781306117bc565b610d46576040517f08c379a0000000000000000000000000000000000000000000000000000000008152600401610d3d906137fa565b60405180910390fd5b610d4f82611e7b565b610d5882610b6e565b5050565b6000610d66610a04565b8210610da7576040517f08c379a0000000000000000000000000000000000000000000000000000000008152600401610d9e9061388c565b60405180910390fd5b60088281548110610dbb57610dba613613565b5b90600052602060002001549050919050565b6000610dd9600a611f98565b905090565b6000806002600084815260200190815260200160002060009054906101000a900473ffffffffffffffffffffffffffffffffffffffff169050600073ffffffffffffffffffffffffffffffffffffffff168173ffffffffffffffffffffffffffffffffffffffff1603610e86576040517f08c379a0000000000000000000000000000000000000000000000000000000008152600401610e7d906138f8565b60405180910390fd5b80915050919050565b60008073ffffffffffffffffffffffffffffffffffffffff168273ffffffffffffffffffffffffffffffffffffffff1603610eff576040517f08c379a0000000000000000000000000000000000000000000000000000000008152600401610ef69061398a565b60405180910390fd5b600360008373ffffffffffffffffffffffffffffffffffffffff1673ffffffffffffffffffffffffffffffffffffffff168152602001908152602001600020549050919050565b600e8181548110610f5657600080fd5b906000526020600020016000915090505481565b60606000610f76610a11565b90506000815167ffffffffffffffff811115610f9557610f94613053565b5b604051908082528060200260200182016040528015610fce57816020015b610fbb6129ff565b815260200190600190039081610fb35790505b50905060005b825181101561105f576000838281518110610ff257610ff1613613565b5b60200260200101519050600061100782611108565b90506040518060600160405280838152602001611023846113d2565b81526020018281525084848151811061103f5761103e613613565b5b602002602001018190525050508080611057906136d4565b915050610fd4565b50809250505090565b600c60205280600052604060002060009150905080546110879061339a565b80601f01602080910402602001604051908101604052809291908181526020018280546110b39061339a565b80156111005780601f106110d557610100808354040283529160200191611100565b820191906000526020600020905b8154815290600101906020018083116110e357829003601f168201915b505050505081565b6000600d6000838152602001908152602001600020549050919050565b6060600180546111349061339a565b80601f01602080910402602001604051908101604052809291908181526020018280546111609061339a565b80156111ad5780601f10611182576101008083540402835291602001916111ad565b820191906000526020600020905b81548152906001019060200180831161119057829003601f168201915b5050505050905090565b6111c96111c2611abf565b8383611fa6565b5050565b6111de6111d8611abf565b83611b80565b61121d576040517f08c379a000000000000000000000000000000000000000000000000000000000815260040161121490613561565b60405180910390fd5b61122984848484612112565b50505050565b600061123a83610dde565b90503373ffffffffffffffffffffffffffffffffffffffff168173ffffffffffffffffffffffffffffffffffffffff16146112aa576040517f08c379a00000000000000000000000000000000000000000000000000000000081526004016112a1906139f6565b60405180910390fd5b600082116112ed576040517f08c379a00000000000000000000000000000000000000000000000000000000081526004016112e490613a62565b60405180910390fd5b6000600d60008581526020019081526020016000205414611343576040517f08c379a000000000000000000000000000000000000000000000000000000000815260040161133a90613af4565b60405180910390fd5b61134d81306117bc565b61138c576040517f08c379a0000000000000000000000000000000000000000000000000000000008152600401611383906137fa565b60405180910390fd5b81600d600085815260200190815260200160002081905550600e839080600181540180825580915050600190039060005260206000200160009091909190915055505050565b6060600c600083815260200190815260200160002080546113f29061339a565b80601f016020809104026020016040519081016040528092919081815260200182805461141e9061339a565b801561146b5780601f106114405761010080835404028352916020019161146b565b820191906000526020600020905b81548152906001019060200180831161144e57829003601f168201915b50505050509050919050565b6000600d6000838152602001908152602001600020549050600061149a83610dde565b9050600082116114df576040517f08c379a00000000000000000000000000000000000000000000000000000000081526004016114d690613b60565b60405180910390fd5b346103e86103e9846114f19190613b80565b6114fb9190613c09565b111561153c576040517f08c379a000000000000000000000000000000000000000000000000000000000815260040161153390613c86565b60405180910390fd5b3373ffffffffffffffffffffffffffffffffffffffff168173ffffffffffffffffffffffffffffffffffffffff16036115aa576040517f08c379a00000000000000000000000000000000000000000000000000000000081526004016115a190613cf2565b60405180910390fd5b6115b481306117bc565b6115f3576040517f08c379a00000000000000000000000000000000000000000000000000000000081526004016115ea906137fa565b60405180910390fd5b8073ffffffffffffffffffffffffffffffffffffffff166108fc839081150290604051600060405180830381858888f19350505050158015611639573d6000803e3d6000fd5b50600b60009054906101000a900473ffffffffffffffffffffffffffffffffffffffff1673ffffffffffffffffffffffffffffffffffffffff166108fc6103e8846116849190613c09565b9081150290604051600060405180830381858888f193505050501580156116af573d6000803e3d6000fd5b50346103e86103e9846116c29190613b80565b6116cc9190613c09565b101561173f573373ffffffffffffffffffffffffffffffffffffffff166108fc6103e86103e9856116fd9190613b80565b6117079190613c09565b346117129190613671565b9081150290604051600060405180830381858888f1935050505015801561173d573d6000803e3d6000fd5b505b3073ffffffffffffffffffffffffffffffffffffffff166342842e0e8233866040518463ffffffff1660e01b815260040161177c93929190613d12565b600060405180830381600087803b15801561179657600080fd5b505af11580156117aa573d6000803e3d6000fd5b505050506117b783610b6e565b505050565b6000600560008473ffffffffffffffffffffffffffffffffffffffff1673ffffffffffffffffffffffffffffffffffffffff16815260200190815260200160002060008373ffffffffffffffffffffffffffffffffffffffff1673ffffffffffffffffffffffffffffffffffffffff16815260200190815260200160002060009054906101000a900460ff16905092915050565b6060600061185d83610e8f565b905060008167ffffffffffffffff81111561187b5761187a613053565b5b6040519080825280602002602001820160405280156118b457816020015b6118a16129ff565b8152602001906001900390816118995790505b50905060005b828110156119395760006118ce8683610ac9565b905060006118db826113d2565b905060006118e883611108565b905060405180606001604052808481526020018381526020018281525085858151811061191857611917613613565b5b60200260200101819052505050508080611931906136d4565b9150506118ba565b508092505050919050565b6000611950600a61216e565b600061195c600a611f98565b905082600c6000838152602001908152602001600020908161197e9190613ef5565b506119893382612184565b80915050919050565b60007f80ac58cd000000000000000000000000000000000000000000000000000000007bffffffffffffffffffffffffffffffffffffffffffffffffffffffff1916827bffffffffffffffffffffffffffffffffffffffffffffffffffffffff19161480611a5d57507f5b5e139f000000000000000000000000000000000000000000000000000000007bffffffffffffffffffffffffffffffffffffffffffffffffffffffff1916827bffffffffffffffffffffffffffffffffffffffffffffffffffffffff1916145b80611a6d5750611a6c8261235d565b5b9050919050565b611a7d816123c7565b611abc576040517f08c379a0000000000000000000000000000000000000000000000000000000008152600401611ab3906138f8565b60405180910390fd5b50565b600033905090565b816004600083815260200190815260200160002060006101000a81548173ffffffffffffffffffffffffffffffffffffffff021916908373ffffffffffffffffffffffffffffffffffffffff160217905550808273ffffffffffffffffffffffffffffffffffffffff16611b3a83610dde565b73ffffffffffffffffffffffffffffffffffffffff167f8c5be1e5ebec7d5bd14f71427d1e84f3dd0314c0f7b2291e5b200ac8c7c3b92560405160405180910390a45050565b600080611b8c83610dde565b90508073ffffffffffffffffffffffffffffffffffffffff168473ffffffffffffffffffffffffffffffffffffffff161480611bce5750611bcd81856117bc565b5b80611c0c57508373ffffffffffffffffffffffffffffffffffffffff16611bf48461088f565b73ffffffffffffffffffffffffffffffffffffffff16145b91505092915050565b8273ffffffffffffffffffffffffffffffffffffffff16611c3582610dde565b73ffffffffffffffffffffffffffffffffffffffff1614611c8b576040517f08c379a0000000000000000000000000000000000000000000000000000000008152600401611c8290614039565b60405180910390fd5b600073ffffffffffffffffffffffffffffffffffffffff168273ffffffffffffffffffffffffffffffffffffffff1603611cfa576040517f08c379a0000000000000000000000000000000000000000000000000000000008152600401611cf1906140cb565b60405180910390fd5b611d05838383612433565b611d10600082611ac7565b6001600360008573ffffffffffffffffffffffffffffffffffffffff1673ffffffffffffffffffffffffffffffffffffffff1681526020019081526020016000206000828254611d609190613671565b925050819055506001600360008473ffffffffffffffffffffffffffffffffffffffff1673ffffffffffffffffffffffffffffffffffffffff1681526020019081526020016000206000828254611db791906140eb565b92505081905550816002600083815260200190815260200160002060006101000a81548173ffffffffffffffffffffffffffffffffffffffff021916908373ffffffffffffffffffffffffffffffffffffffff160217905550808273ffffffffffffffffffffffffffffffffffffffff168473ffffffffffffffffffffffffffffffffffffffff167fddf252ad1be2c89b69c2b068fc378daa952ba7f163c4a11628f55a4df523b3ef60405160405180910390a4611e76838383612545565b505050565b6000611e8682610dde565b9050611e9481600084612433565b611e9f600083611ac7565b6001600360008373ffffffffffffffffffffffffffffffffffffffff1673ffffffffffffffffffffffffffffffffffffffff1681526020019081526020016000206000828254611eef9190613671565b925050819055506002600083815260200190815260200160002060006101000a81549073ffffffffffffffffffffffffffffffffffffffff021916905581600073ffffffffffffffffffffffffffffffffffffffff168273ffffffffffffffffffffffffffffffffffffffff167fddf252ad1be2c89b69c2b068fc378daa952ba7f163c4a11628f55a4df523b3ef60405160405180910390a4611f9481600084612545565b5050565b600081600001549050919050565b8173ffffffffffffffffffffffffffffffffffffffff168373ffffffffffffffffffffffffffffffffffffffff1603612014576040517f08c379a000000000000000000000000000000000000000000000000000000000815260040161200b9061418d565b60405180910390fd5b80600560008573ffffffffffffffffffffffffffffffffffffffff1673ffffffffffffffffffffffffffffffffffffffff16815260200190815260200160002060008473ffffffffffffffffffffffffffffffffffffffff1673ffffffffffffffffffffffffffffffffffffffff16815260200190815260200160002060006101000a81548160ff0219169083151502179055508173ffffffffffffffffffffffffffffffffffffffff168373ffffffffffffffffffffffffffffffffffffffff167f17307eab39ab6107e8899845ad3d59bd9653f200f220920489ca2b5937696c31836040516121059190612ad4565b60405180910390a3505050565b61211d848484611c15565b6121298484848461254a565b612168576040517f08c379a000000000000000000000000000000000000000000000000000000000815260040161215f9061421f565b60405180910390fd5b50505050565b6001816000016000828254019250508190555050565b600073ffffffffffffffffffffffffffffffffffffffff168273ffffffffffffffffffffffffffffffffffffffff16036121f3576040517f08c379a00000000000000000000000000000000000000000000000000000000081526004016121ea9061428b565b60405180910390fd5b6121fc816123c7565b1561223c576040517f08c379a0000000000000000000000000000000000000000000000000000000008152600401612233906142f7565b60405180910390fd5b61224860008383612433565b6001600360008473ffffffffffffffffffffffffffffffffffffffff1673ffffffffffffffffffffffffffffffffffffffff168152602001908152602001600020600082825461229891906140eb565b92505081905550816002600083815260200190815260200160002060006101000a81548173ffffffffffffffffffffffffffffffffffffffff021916908373ffffffffffffffffffffffffffffffffffffffff160217905550808273ffffffffffffffffffffffffffffffffffffffff16600073ffffffffffffffffffffffffffffffffffffffff167fddf252ad1be2c89b69c2b068fc378daa952ba7f163c4a11628f55a4df523b3ef60405160405180910390a461235960008383612545565b5050565b60007f01ffc9a7000000000000000000000000000000000000000000000000000000007bffffffffffffffffffffffffffffffffffffffffffffffffffffffff1916827bffffffffffffffffffffffffffffffffffffffffffffffffffffffff1916149050919050565b60008073ffffffffffffffffffffffffffffffffffffffff166002600084815260200190815260200160002060009054906101000a900473ffffffffffffffffffffffffffffffffffffffff1673ffffffffffffffffffffffffffffffffffffffff1614159050919050565b61243e8383836126d1565b600073ffffffffffffffffffffffffffffffffffffffff168373ffffffffffffffffffffffffffffffffffffffff16036124805761247b816126d6565b6124bf565b8173ffffffffffffffffffffffffffffffffffffffff168373ffffffffffffffffffffffffffffffffffffffff16146124be576124bd838261271f565b5b5b600073ffffffffffffffffffffffffffffffffffffffff168273ffffffffffffffffffffffffffffffffffffffff1603612501576124fc8161288c565b612540565b8273ffffffffffffffffffffffffffffffffffffffff168273ffffffffffffffffffffffffffffffffffffffff161461253f5761253e828261295d565b5b5b505050565b505050565b600061256b8473ffffffffffffffffffffffffffffffffffffffff166129dc565b156126c4578373ffffffffffffffffffffffffffffffffffffffff1663150b7a02612594611abf565b8786866040518563ffffffff1660e01b81526004016125b6949392919061436c565b6020604051808303816000875af19250505080156125f257506040513d601f19601f820116820180604052508101906125ef91906143cd565b60015b612674573d8060008114612622576040519150601f19603f3d011682016040523d82523d6000602084013e612627565b606091505b50600081510361266c576040517f08c379a00000000000000000000000000000000000000000000000000000000081526004016126639061421f565b60405180910390fd5b805181602001fd5b63150b7a0260e01b7bffffffffffffffffffffffffffffffffffffffffffffffffffffffff1916817bffffffffffffffffffffffffffffffffffffffffffffffffffffffff1916149150506126c9565b600190505b949350505050565b505050565b6008805490506009600083815260200190815260200160002081905550600881908060018154018082558091505060019003906000526020600020016000909190919091505550565b6000600161272c84610e8f565b6127369190613671565b905060006007600084815260200190815260200160002054905081811461281b576000600660008673ffffffffffffffffffffffffffffffffffffffff1673ffffffffffffffffffffffffffffffffffffffff168152602001908152602001600020600084815260200190815260200160002054905080600660008773ffffffffffffffffffffffffffffffffffffffff1673ffffffffffffffffffffffffffffffffffffffff168152602001908152602001600020600084815260200190815260200160002081905550816007600083815260200190815260200160002081905550505b6007600084815260200190815260200160002060009055600660008573ffffffffffffffffffffffffffffffffffffffff1673ffffffffffffffffffffffffffffffffffffffff16815260200190815260200160002060008381526020019081526020016000206000905550505050565b600060016008805490506128a09190613671565b90506000600960008481526020019081526020016000205490506000600883815481106128d0576128cf613613565b5b9060005260206000200154905080600883815481106128f2576128f1613613565b5b906000526020600020018190555081600960008381526020019081526020016000208190555060096000858152602001908152602001600020600090556008805480612941576129406136a5565b5b6001900381819060005260206000200160009055905550505050565b600061296883610e8f565b905081600660008573ffffffffffffffffffffffffffffffffffffffff1673ffffffffffffffffffffffffffffffffffffffff168152602001908152602001600020600083815260200190815260200160002081905550806007600084815260200190815260200160002081905550505050565b6000808273ffffffffffffffffffffffffffffffffffffffff163b119050919050565b60405180606001604052806000815260200160608152602001600081525090565b6000604051905090565b600080fd5b600080fd5b60007fffffffff0000000000000000000000000000000000000000000000000000000082169050919050565b612a6981612a34565b8114612a7457600080fd5b50565b600081359050612a8681612a60565b92915050565b600060208284031215612aa257612aa1612a2a565b5b6000612ab084828501612a77565b91505092915050565b60008115159050919050565b612ace81612ab9565b82525050565b6000602082019050612ae96000830184612ac5565b92915050565b600081519050919050565b600082825260208201905092915050565b60005b83811015612b29578082015181840152602081019050612b0e565b83811115612b38576000848401525b50505050565b6000601f19601f8301169050919050565b6000612b5a82612aef565b612b648185612afa565b9350612b74818560208601612b0b565b612b7d81612b3e565b840191505092915050565b60006020820190508181036000830152612ba28184612b4f565b905092915050565b6000819050919050565b612bbd81612baa565b8114612bc857600080fd5b50565b600081359050612bda81612bb4565b92915050565b600060208284031215612bf657612bf5612a2a565b5b6000612c0484828501612bcb565b91505092915050565b600073ffffffffffffffffffffffffffffffffffffffff82169050919050565b6000612c3882612c0d565b9050919050565b612c4881612c2d565b82525050565b6000602082019050612c636000830184612c3f565b92915050565b612c7281612c2d565b8114612c7d57600080fd5b50565b600081359050612c8f81612c69565b92915050565b60008060408385031215612cac57612cab612a2a565b5b6000612cba85828601612c80565b9250506020612ccb85828601612bcb565b9150509250929050565b612cde81612baa565b82525050565b6000602082019050612cf96000830184612cd5565b92915050565b600081519050919050565b600082825260208201905092915050565b6000819050602082019050919050565b612d3481612baa565b82525050565b6000612d468383612d2b565b60208301905092915050565b6000602082019050919050565b6000612d6a82612cff565b612d748185612d0a565b9350612d7f83612d1b565b8060005b83811015612db0578151612d978882612d3a565b9750612da283612d52565b925050600181019050612d83565b5085935050505092915050565b60006020820190508181036000830152612dd78184612d5f565b905092915050565b600080600060608486031215612df857612df7612a2a565b5b6000612e0686828701612c80565b9350506020612e1786828701612c80565b9250506040612e2886828701612bcb565b9150509250925092565b600060208284031215612e4857612e47612a2a565b5b6000612e5684828501612c80565b91505092915050565b600081519050919050565b600082825260208201905092915050565b6000819050602082019050919050565b600082825260208201905092915050565b6000612ea782612aef565b612eb18185612e8b565b9350612ec1818560208601612b0b565b612eca81612b3e565b840191505092915050565b6000606083016000830151612eed6000860182612d2b565b5060208301518482036020860152612f058282612e9c565b9150506040830151612f1a6040860182612d2b565b508091505092915050565b6000612f318383612ed5565b905092915050565b6000602082019050919050565b6000612f5182612e5f565b612f5b8185612e6a565b935083602082028501612f6d85612e7b565b8060005b85811015612fa95784840389528151612f8a8582612f25565b9450612f9583612f39565b925060208a01995050600181019050612f71565b50829750879550505050505092915050565b60006020820190508181036000830152612fd58184612f46565b905092915050565b612fe681612ab9565b8114612ff157600080fd5b50565b60008135905061300381612fdd565b92915050565b600080604083850312156130205761301f612a2a565b5b600061302e85828601612c80565b925050602061303f85828601612ff4565b9150509250929050565b600080fd5b600080fd5b7f4e487b7100000000000000000000000000000000000000000000000000000000600052604160045260246000fd5b61308b82612b3e565b810181811067ffffffffffffffff821117156130aa576130a9613053565b5b80604052505050565b60006130bd612a20565b90506130c98282613082565b919050565b600067ffffffffffffffff8211156130e9576130e8613053565b5b6130f282612b3e565b9050602081019050919050565b82818337600083830152505050565b600061312161311c846130ce565b6130b3565b90508281526020810184848401111561313d5761313c61304e565b5b6131488482856130ff565b509392505050565b600082601f83011261316557613164613049565b5b813561317584826020860161310e565b91505092915050565b6000806000806080858703121561319857613197612a2a565b5b60006131a687828801612c80565b94505060206131b787828801612c80565b93505060406131c887828801612bcb565b925050606085013567ffffffffffffffff8111156131e9576131e8612a2f565b5b6131f587828801613150565b91505092959194509250565b6000806040838503121561321857613217612a2a565b5b600061322685828601612bcb565b925050602061323785828601612bcb565b9150509250929050565b6000806040838503121561325857613257612a2a565b5b600061326685828601612c80565b925050602061327785828601612c80565b9150509250929050565b600067ffffffffffffffff82111561329c5761329b613053565b5b6132a582612b3e565b9050602081019050919050565b60006132c56132c084613281565b6130b3565b9050828152602081018484840111156132e1576132e061304e565b5b6132ec8482856130ff565b509392505050565b600082601f83011261330957613308613049565b5b81356133198482602086016132b2565b91505092915050565b60006020828403121561333857613337612a2a565b5b600082013567ffffffffffffffff81111561335657613355612a2f565b5b613362848285016132f4565b91505092915050565b7f4e487b7100000000000000000000000000000000000000000000000000000000600052602260045260246000fd5b600060028204905060018216806133b257607f821691505b6020821081036133c5576133c461336b565b5b50919050565b7f4552433732313a20617070726f76616c20746f2063757272656e74206f776e6560008201527f7200000000000000000000000000000000000000000000000000000000000000602082015250565b6000613427602183612afa565b9150613432826133cb565b604082019050919050565b600060208201905081810360008301526134568161341a565b9050919050565b7f4552433732313a20617070726f76652063616c6c6572206973206e6f7420746f60008201527f6b656e206f776e6572206e6f7220617070726f76656420666f7220616c6c0000602082015250565b60006134b9603e83612afa565b91506134c48261345d565b604082019050919050565b600060208201905081810360008301526134e8816134ac565b9050919050565b7f4552433732313a2063616c6c6572206973206e6f7420746f6b656e206f776e6560008201527f72206e6f7220617070726f766564000000000000000000000000000000000000602082015250565b600061354b602e83612afa565b9150613556826134ef565b604082019050919050565b6000602082019050818103600083015261357a8161353e565b9050919050565b7f455243373231456e756d657261626c653a206f776e657220696e646578206f7560008201527f74206f6620626f756e6473000000000000000000000000000000000000000000602082015250565b60006135dd602b83612afa565b91506135e882613581565b604082019050919050565b6000602082019050818103600083015261360c816135d0565b9050919050565b7f4e487b7100000000000000000000000000000000000000000000000000000000600052603260045260246000fd5b7f4e487b7100000000000000000000000000000000000000000000000000000000600052601160045260246000fd5b600061367c82612baa565b915061368783612baa565b92508282101561369a57613699613642565b5b828203905092915050565b7f4e487b7100000000000000000000000000000000000000000000000000000000600052603160045260246000fd5b60006136df82612baa565b91507fffffffffffffffffffffffffffffffffffffffffffffffffffffffffffffffff820361371157613710613642565b5b600182019050919050565b7f63616c6c6572206973206e6f74206e667420746f6b656e206f776e65722e0000600082015250565b6000613752601e83612afa565b915061375d8261371c565b602082019050919050565b6000602082019050818103600083015261378181613745565b9050919050565b7f6e667420746f6b656e206f776e657220646964206e6f7420617070726f76652060008201527f746f6b656e2e0000000000000000000000000000000000000000000000000000602082015250565b60006137e4602683612afa565b91506137ef82613788565b604082019050919050565b60006020820190508181036000830152613813816137d7565b9050919050565b7f455243373231456e756d657261626c653a20676c6f62616c20696e646578206f60008201527f7574206f6620626f756e64730000000000000000000000000000000000000000602082015250565b6000613876602c83612afa565b91506138818261381a565b604082019050919050565b600060208201905081810360008301526138a581613869565b9050919050565b7f4552433732313a20696e76616c696420746f6b656e2049440000000000000000600082015250565b60006138e2601883612afa565b91506138ed826138ac565b602082019050919050565b60006020820190508181036000830152613911816138d5565b9050919050565b7f4552433732313a2061646472657373207a65726f206973206e6f74206120766160008201527f6c6964206f776e65720000000000000000000000000000000000000000000000602082015250565b6000613974602983612afa565b915061397f82613918565b604082019050919050565b600060208201905081810360008301526139a381613967565b9050919050565b7f43616c6c6572206973206e6f74206e667420746f6b656e206f776e65722e0000600082015250565b60006139e0601e83612afa565b91506139eb826139aa565b602082019050919050565b60006020820190508181036000830152613a0f816139d3565b9050919050565b7f5072696365206973207a65726f206f72206c6f7765722e000000000000000000600082015250565b6000613a4c601783612afa565b9150613a5782613a16565b602082019050919050565b60006020820190508181036000830152613a7b81613a3f565b9050919050565b7f54686973206e667420746f6b656e20697320616c7265616479206f6e2073616c60008201527f652e000000000000000000000000000000000000000000000000000000000000602082015250565b6000613ade602283612afa565b9150613ae982613a82565b604082019050919050565b60006020820190508181036000830152613b0d81613ad1565b9050919050565b7f6e667420746f6b656e206e6f742073616c652e00000000000000000000000000600082015250565b6000613b4a601383612afa565b9150613b5582613b14565b602082019050919050565b60006020820190508181036000830152613b7981613b3d565b9050919050565b6000613b8b82612baa565b9150613b9683612baa565b9250817fffffffffffffffffffffffffffffffffffffffffffffffffffffffffffffffff0483118215151615613bcf57613bce613642565b5b828202905092915050565b7f4e487b7100000000000000000000000000000000000000000000000000000000600052601260045260246000fd5b6000613c1482612baa565b9150613c1f83612baa565b925082613c2f57613c2e613bda565b5b828204905092915050565b7f63616c6c65722073656e74206c6f776572207468616e2070726963652e000000600082015250565b6000613c70601d83612afa565b9150613c7b82613c3a565b602082019050919050565b60006020820190508181036000830152613c9f81613c63565b9050919050565b7f63616c6c6572206973206e667420746f6b656e206f776e65722e000000000000600082015250565b6000613cdc601a83612afa565b9150613ce782613ca6565b602082019050919050565b60006020820190508181036000830152613d0b81613ccf565b9050919050565b6000606082019050613d276000830186612c3f565b613d346020830185612c3f565b613d416040830184612cd5565b949350505050565b60008190508160005260206000209050919050565b60006020601f8301049050919050565b600082821b905092915050565b600060088302613dab7fffffffffffffffffffffffffffffffffffffffffffffffffffffffffffffffff82613d6e565b613db58683613d6e565b95508019841693508086168417925050509392505050565b6000819050919050565b6000613df2613ded613de884612baa565b613dcd565b612baa565b9050919050565b6000819050919050565b613e0c83613dd7565b613e20613e1882613df9565b848454613d7b565b825550505050565b600090565b613e35613e28565b613e40818484613e03565b505050565b5b81811015613e6457613e59600082613e2d565b600181019050613e46565b5050565b601f821115613ea957613e7a81613d49565b613e8384613d5e565b81016020851015613e92578190505b613ea6613e9e85613d5e565b830182613e45565b50505b505050565b600082821c905092915050565b6000613ecc60001984600802613eae565b1980831691505092915050565b6000613ee58383613ebb565b9150826002028217905092915050565b613efe82612aef565b67ffffffffffffffff811115613f1757613f16613053565b5b613f21825461339a565b613f2c828285613e68565b600060209050601f831160018114613f5f5760008415613f4d578287015190505b613f578582613ed9565b865550613fbf565b601f198416613f6d86613d49565b60005b82811015613f9557848901518255600182019150602085019450602081019050613f70565b86831015613fb25784890151613fae601f891682613ebb565b8355505b6001600288020188555050505b505050505050565b7f4552433732313a207472616e736665722066726f6d20696e636f72726563742060008201527f6f776e6572000000000000000000000000000000000000000000000000000000602082015250565b6000614023602583612afa565b915061402e82613fc7565b604082019050919050565b6000602082019050818103600083015261405281614016565b9050919050565b7f4552433732313a207472616e7366657220746f20746865207a65726f2061646460008201527f7265737300000000000000000000000000000000000000000000000000000000602082015250565b60006140b5602483612afa565b91506140c082614059565b604082019050919050565b600060208201905081810360008301526140e4816140a8565b9050919050565b60006140f682612baa565b915061410183612baa565b9250827fffffffffffffffffffffffffffffffffffffffffffffffffffffffffffffffff0382111561413657614135613642565b5b828201905092915050565b7f4552433732313a20617070726f766520746f2063616c6c657200000000000000600082015250565b6000614177601983612afa565b915061418282614141565b602082019050919050565b600060208201905081810360008301526141a68161416a565b9050919050565b7f4552433732313a207472616e7366657220746f206e6f6e20455243373231526560008201527f63656976657220696d706c656d656e7465720000000000000000000000000000602082015250565b6000614209603283612afa565b9150614214826141ad565b604082019050919050565b60006020820190508181036000830152614238816141fc565b9050919050565b7f4552433732313a206d696e7420746f20746865207a65726f2061646472657373600082015250565b6000614275602083612afa565b91506142808261423f565b602082019050919050565b600060208201905081810360008301526142a481614268565b9050919050565b7f4552433732313a20746f6b656e20616c7265616479206d696e74656400000000600082015250565b60006142e1601c83612afa565b91506142ec826142ab565b602082019050919050565b60006020820190508181036000830152614310816142d4565b9050919050565b600081519050919050565b600082825260208201905092915050565b600061433e82614317565b6143488185614322565b9350614358818560208601612b0b565b61436181612b3e565b840191505092915050565b60006080820190506143816000830187612c3f565b61438e6020830186612c3f565b61439b6040830185612cd5565b81810360608301526143ad8184614333565b905095945050505050565b6000815190506143c781612a60565b92915050565b6000602082840312156143e3576143e2612a2a565b5b60006143f1848285016143b8565b9150509291505056fea2646970667358221220b2d5c1a5ba13aa741ea57047a7c79dbe456b57db38dcb25b4536d095ef193cda64736f6c634300080f0033",
  "immutableReferences": {},
  "source": "// contracts/BrickTokenERC721.sol\n// SPDX-License-Identifier: MIT\n\npragma solidity ^0.8.7;\n\nimport '@openzeppelin/contracts/token/ERC721/extensions/ERC721Enumerable.sol';\nimport '@openzeppelin/contracts/utils/Counters.sol';\n\ncontract BrickTokenERC721 is ERC721Enumerable {\n    using Counters for Counters.Counter;\n    Counters.Counter private _tokenId;\n\n    // contract \n    address payable owner;\n\n    // tokenId mapping token URI\n    mapping(uint256 => string) public _nftTokenURIs;\n    // tokenId mapping token \n    mapping(uint256 => uint256) public _nftTokenPrices;\n\n    //     \n    uint256[] public onSaleNftTokenArray;\n\n    constructor() ERC721('BrickToken', 'BT') {\n        owner = payable(msg.sender);\n    }\n\n    // tokenId  tokenURI  \n    function tokenURI(uint256 tokenId)\n        public\n        view\n        override\n        returns (string memory)\n    {\n        return _nftTokenURIs[tokenId];\n    }\n\n    // NFT  \n    function mintNFT(string memory _tokenURI) public returns (uint256) {\n        _tokenId.increment();\n        uint256 tokenId = _tokenId.current();\n\n        _nftTokenURIs[tokenId] = _tokenURI;\n        _mint(msg.sender, tokenId);\n\n        return tokenId;\n    }\n\n    //    \n    function getNftTokenPrice(uint256 tokenId) public view returns (uint256) {\n        return _nftTokenPrices[tokenId];\n    }\n\n    //     \n    struct NftTokenData {\n        uint256 nftTokenId;\n        string nftTokenURI;\n        uint256 price;\n    }\n\n    //     ID  \n    function getRecentTokenId() public view returns (uint256) {\n        return _tokenId.current();\n    }\n\n    //      \n    function getNftTokens(address nftTokenOwner)\n        public\n        view\n        returns (NftTokenData[] memory)\n    {\n        // nftTokenOwner    \n        uint256 balanceLength = balanceOf(nftTokenOwner);\n\n        // for          \n        NftTokenData[] memory nftTokenDatas = new NftTokenData[](balanceLength);\n        for (uint256 i = 0; i < balanceLength; i++) {\n            uint256 nftTokenId = tokenOfOwnerByIndex(nftTokenOwner, i);\n            string memory nftTokenURI = tokenURI(nftTokenId);\n            uint256 nftTokenPrice = getNftTokenPrice(nftTokenId);\n\n            nftTokenDatas[i] = NftTokenData(\n                nftTokenId,\n                nftTokenURI,\n                nftTokenPrice\n            );\n        }\n\n        return nftTokenDatas;\n    }\n\n    //   \n    function setSaleNftToken(uint256 tokenId, uint256 price) public {\n        address nftTokenOwner = ownerOf(tokenId);\n\n        //     \n        require(nftTokenOwner == msg.sender, 'Caller is not nft token owner.');\n        //   0 .\n        require(price > 0, 'Price is zero or lower.');\n        //    0        .\n        require(\n            _nftTokenPrices[tokenId] == 0,\n            'This nft token is already on sale.'\n        );\n        //     \n        require(\n            isApprovedForAll(nftTokenOwner, address(this)),\n            'nft token owner did not approve token.'\n        );\n\n        //       \n        _nftTokenPrices[tokenId] = price;\n        onSaleNftTokenArray.push(tokenId);\n    }\n\n    //       \n    function getSaleNftToken() public view returns (uint256[] memory) {\n        return onSaleNftTokenArray;\n    }\n\n    //       \n    function getSaleNftTokens() public view returns (NftTokenData[] memory) {\n        uint256[] memory onSaleNftToken = getSaleNftToken();\n        NftTokenData[] memory onSaleNftTokens = new NftTokenData[](\n            onSaleNftToken.length\n        );\n\n        for (uint256 i = 0; i < onSaleNftToken.length; i++) {\n            uint256 tokenId = onSaleNftToken[i];\n            uint256 tokenPrice = getNftTokenPrice(tokenId);\n\n            onSaleNftTokens[i] = NftTokenData(\n                tokenId,\n                tokenURI(tokenId),\n                tokenPrice\n            );\n        }\n\n        return onSaleNftTokens;\n    }\n\n    //          \n    function removeToken(uint256 tokenId) public {\n        _nftTokenPrices[tokenId] = 0;\n\n        for (uint256 i = 0; i < onSaleNftTokenArray.length; i++) {\n            if (_nftTokenPrices[onSaleNftTokenArray[i]] == 0) {\n                onSaleNftTokenArray[i] = onSaleNftTokenArray[\n                    onSaleNftTokenArray.length - 1\n                ];\n                onSaleNftTokenArray.pop();\n            }\n        }\n    }\n\n    //  \n    function buyNftToken(uint256 tokenId) public payable {\n        uint256 price = _nftTokenPrices[tokenId];\n        address nftTokenOwner = ownerOf(tokenId);\n\n        //    \n        require(price > 0, 'nft token not sale.');\n        //      \n        require(\n            (price * 1001) / 1000 <= msg.value,\n            'caller sent lower than price.'\n        );\n        //        \n        require(nftTokenOwner != msg.sender, 'caller is nft token owner.');\n        //     \n        require(\n            isApprovedForAll(nftTokenOwner, address(this)),\n            'nft token owner did not approve token.'\n        );\n\n        payable(nftTokenOwner).transfer(price);\n        payable(owner).transfer(price / 1000);\n        if ((price * 1001) / 1000 < msg.value)\n            payable(msg.sender).transfer(msg.value - ((price * 1001) / 1000));\n\n        IERC721(address(this)).safeTransferFrom(\n            nftTokenOwner,\n            msg.sender,\n            tokenId\n        );\n\n        //   \n        removeToken(tokenId);\n    }\n\n    //   \n    function burn(uint256 tokenId) public {\n        address nftTokenOwner = ownerOf(tokenId);\n\n        //    \n        require(nftTokenOwner == msg.sender, 'caller is not nft token owner.');\n        //     \n        require(\n            isApprovedForAll(nftTokenOwner, address(this)),\n            'nft token owner did not approve token.'\n        );\n\n        _burn(tokenId);\n        removeToken(tokenId);\n    }\n}\n",
  "sourcePath": "/home/octo/42brick_backend/contract/contracts/BrickTokenERC721.sol",
  "compiler": {
    "name": "solc",
    "version": "0.8.15+commit.e14f2714.Emscripten.clang"
  },
  "schemaVersion": "3.4.7",
  "updatedAt": "2022-09-14T10:04:55.513Z",
  "devdoc": {
    "kind": "dev",
    "methods": {
      "approve(address,uint256)": {
        "details": "See {IERC721-approve}."
      },
      "balanceOf(address)": {
        "details": "See {IERC721-balanceOf}."
      },
      "getApproved(uint256)": {
        "details": "See {IERC721-getApproved}."
      },
      "isApprovedForAll(address,address)": {
        "details": "See {IERC721-isApprovedForAll}."
      },
      "name()": {
        "details": "See {IERC721Metadata-name}."
      },
      "ownerOf(uint256)": {
        "details": "See {IERC721-ownerOf}."
      },
      "safeTransferFrom(address,address,uint256)": {
        "details": "See {IERC721-safeTransferFrom}."
      },
      "safeTransferFrom(address,address,uint256,bytes)": {
        "details": "See {IERC721-safeTransferFrom}."
      },
      "setApprovalForAll(address,bool)": {
        "details": "See {IERC721-setApprovalForAll}."
      },
      "supportsInterface(bytes4)": {
        "details": "See {IERC165-supportsInterface}."
      },
      "symbol()": {
        "details": "See {IERC721Metadata-symbol}."
      },
      "tokenByIndex(uint256)": {
        "details": "See {IERC721Enumerable-tokenByIndex}."
      },
      "tokenOfOwnerByIndex(address,uint256)": {
        "details": "See {IERC721Enumerable-tokenOfOwnerByIndex}."
      },
      "tokenURI(uint256)": {
        "details": "See {IERC721Metadata-tokenURI}."
      },
      "totalSupply()": {
        "details": "See {IERC721Enumerable-totalSupply}."
      },
      "transferFrom(address,address,uint256)": {
        "details": "See {IERC721-transferFrom}."
      }
    },
    "version": 1
  },
  "userdoc": {
    "kind": "user",
    "methods": {},
    "version": 1
  }
}