{
  "contractName": "BrickToken",
  "abi": [
    {
      "inputs": [],
      "stateMutability": "nonpayable",
      "type": "constructor"
    },
    {
      "anonymous": false,
      "inputs": [
        {
          "indexed": true,
          "internalType": "address",
          "name": "owner",
          "type": "address"
        },
        {
          "indexed": true,
          "internalType": "address",
          "name": "approved",
          "type": "address"
        },
        {
          "indexed": true,
          "internalType": "uint256",
          "name": "tokenId",
          "type": "uint256"
        }
      ],
      "name": "Approval",
      "type": "event"
    },
    {
      "anonymous": false,
      "inputs": [
        {
          "indexed": true,
          "internalType": "address",
          "name": "owner",
          "type": "address"
        },
        {
          "indexed": true,
          "internalType": "address",
          "name": "operator",
          "type": "address"
        },
        {
          "indexed": false,
          "internalType": "bool",
          "name": "approved",
          "type": "bool"
        }
      ],
      "name": "ApprovalForAll",
      "type": "event"
    },
    {
      "anonymous": false,
      "inputs": [
        {
          "indexed": true,
          "internalType": "address",
          "name": "from",
          "type": "address"
        },
        {
          "indexed": true,
          "internalType": "address",
          "name": "to",
          "type": "address"
        },
        {
          "indexed": true,
          "internalType": "uint256",
          "name": "tokenId",
          "type": "uint256"
        }
      ],
      "name": "Transfer",
      "type": "event"
    },
    {
      "inputs": [
        {
          "internalType": "uint256",
          "name": "",
          "type": "uint256"
        }
      ],
      "name": "_nftTokenPrices",
      "outputs": [
        {
          "internalType": "uint256",
          "name": "",
          "type": "uint256"
        }
      ],
      "stateMutability": "view",
      "type": "function"
    },
    {
      "inputs": [
        {
          "internalType": "uint256",
          "name": "",
          "type": "uint256"
        }
      ],
      "name": "_nftTokenURIs",
      "outputs": [
        {
          "internalType": "string",
          "name": "",
          "type": "string"
        }
      ],
      "stateMutability": "view",
      "type": "function"
    },
    {
      "inputs": [
        {
          "internalType": "address",
          "name": "to",
          "type": "address"
        },
        {
          "internalType": "uint256",
          "name": "tokenId",
          "type": "uint256"
        }
      ],
      "name": "approve",
      "outputs": [],
      "stateMutability": "nonpayable",
      "type": "function"
    },
    {
      "inputs": [
        {
          "internalType": "address",
          "name": "owner",
          "type": "address"
        }
      ],
      "name": "balanceOf",
      "outputs": [
        {
          "internalType": "uint256",
          "name": "",
          "type": "uint256"
        }
      ],
      "stateMutability": "view",
      "type": "function"
    },
    {
      "inputs": [
        {
          "internalType": "uint256",
          "name": "tokenId",
          "type": "uint256"
        }
      ],
      "name": "getApproved",
      "outputs": [
        {
          "internalType": "address",
          "name": "",
          "type": "address"
        }
      ],
      "stateMutability": "view",
      "type": "function"
    },
    {
      "inputs": [
        {
          "internalType": "address",
          "name": "owner",
          "type": "address"
        },
        {
          "internalType": "address",
          "name": "operator",
          "type": "address"
        }
      ],
      "name": "isApprovedForAll",
      "outputs": [
        {
          "internalType": "bool",
          "name": "",
          "type": "bool"
        }
      ],
      "stateMutability": "view",
      "type": "function"
    },
    {
      "inputs": [],
      "name": "name",
      "outputs": [
        {
          "internalType": "string",
          "name": "",
          "type": "string"
        }
      ],
      "stateMutability": "view",
      "type": "function"
    },
    {
      "inputs": [
        {
          "internalType": "uint256",
          "name": "",
          "type": "uint256"
        }
      ],
      "name": "onSaleNftTokenArray",
      "outputs": [
        {
          "internalType": "uint256",
          "name": "",
          "type": "uint256"
        }
      ],
      "stateMutability": "view",
      "type": "function"
    },
    {
      "inputs": [
        {
          "internalType": "uint256",
          "name": "tokenId",
          "type": "uint256"
        }
      ],
      "name": "ownerOf",
      "outputs": [
        {
          "internalType": "address",
          "name": "",
          "type": "address"
        }
      ],
      "stateMutability": "view",
      "type": "function"
    },
    {
      "inputs": [
        {
          "internalType": "address",
          "name": "from",
          "type": "address"
        },
        {
          "internalType": "address",
          "name": "to",
          "type": "address"
        },
        {
          "internalType": "uint256",
          "name": "tokenId",
          "type": "uint256"
        }
      ],
      "name": "safeTransferFrom",
      "outputs": [],
      "stateMutability": "nonpayable",
      "type": "function"
    },
    {
      "inputs": [
        {
          "internalType": "address",
          "name": "from",
          "type": "address"
        },
        {
          "internalType": "address",
          "name": "to",
          "type": "address"
        },
        {
          "internalType": "uint256",
          "name": "tokenId",
          "type": "uint256"
        },
        {
          "internalType": "bytes",
          "name": "data",
          "type": "bytes"
        }
      ],
      "name": "safeTransferFrom",
      "outputs": [],
      "stateMutability": "nonpayable",
      "type": "function"
    },
    {
      "inputs": [
        {
          "internalType": "address",
          "name": "operator",
          "type": "address"
        },
        {
          "internalType": "bool",
          "name": "approved",
          "type": "bool"
        }
      ],
      "name": "setApprovalForAll",
      "outputs": [],
      "stateMutability": "nonpayable",
      "type": "function"
    },
    {
      "inputs": [
        {
          "internalType": "bytes4",
          "name": "interfaceId",
          "type": "bytes4"
        }
      ],
      "name": "supportsInterface",
      "outputs": [
        {
          "internalType": "bool",
          "name": "",
          "type": "bool"
        }
      ],
      "stateMutability": "view",
      "type": "function"
    },
    {
      "inputs": [],
      "name": "symbol",
      "outputs": [
        {
          "internalType": "string",
          "name": "",
          "type": "string"
        }
      ],
      "stateMutability": "view",
      "type": "function"
    },
    {
      "inputs": [
        {
          "internalType": "uint256",
          "name": "index",
          "type": "uint256"
        }
      ],
      "name": "tokenByIndex",
      "outputs": [
        {
          "internalType": "uint256",
          "name": "",
          "type": "uint256"
        }
      ],
      "stateMutability": "view",
      "type": "function"
    },
    {
      "inputs": [
        {
          "internalType": "address",
          "name": "owner",
          "type": "address"
        },
        {
          "internalType": "uint256",
          "name": "index",
          "type": "uint256"
        }
      ],
      "name": "tokenOfOwnerByIndex",
      "outputs": [
        {
          "internalType": "uint256",
          "name": "",
          "type": "uint256"
        }
      ],
      "stateMutability": "view",
      "type": "function"
    },
    {
      "inputs": [],
      "name": "totalSupply",
      "outputs": [
        {
          "internalType": "uint256",
          "name": "",
          "type": "uint256"
        }
      ],
      "stateMutability": "view",
      "type": "function"
    },
    {
      "inputs": [
        {
          "internalType": "address",
          "name": "from",
          "type": "address"
        },
        {
          "internalType": "address",
          "name": "to",
          "type": "address"
        },
        {
          "internalType": "uint256",
          "name": "tokenId",
          "type": "uint256"
        }
      ],
      "name": "transferFrom",
      "outputs": [],
      "stateMutability": "nonpayable",
      "type": "function"
    },
    {
      "inputs": [
        {
          "internalType": "uint256",
          "name": "tokenId",
          "type": "uint256"
        }
      ],
      "name": "tokenURI",
      "outputs": [
        {
          "internalType": "string",
          "name": "",
          "type": "string"
        }
      ],
      "stateMutability": "view",
      "type": "function"
    },
    {
      "inputs": [
        {
          "internalType": "string",
          "name": "_tokenURI",
          "type": "string"
        }
      ],
      "name": "mintNFT",
      "outputs": [
        {
          "internalType": "uint256",
          "name": "",
          "type": "uint256"
        }
      ],
      "stateMutability": "nonpayable",
      "type": "function"
    },
    {
      "inputs": [
        {
          "internalType": "uint256",
          "name": "tokenId",
          "type": "uint256"
        }
      ],
      "name": "getNftTokenPrice",
      "outputs": [
        {
          "internalType": "uint256",
          "name": "",
          "type": "uint256"
        }
      ],
      "stateMutability": "view",
      "type": "function"
    },
    {
      "inputs": [
        {
          "internalType": "address",
          "name": "nftTokenOwner",
          "type": "address"
        }
      ],
      "name": "getNftTokens",
      "outputs": [
        {
          "components": [
            {
              "internalType": "uint256",
              "name": "nftTokenId",
              "type": "uint256"
            },
            {
              "internalType": "string",
              "name": "nftTokenURI",
              "type": "string"
            },
            {
              "internalType": "uint256",
              "name": "price",
              "type": "uint256"
            }
          ],
          "internalType": "struct BrickToken.NftTokenData[]",
          "name": "",
          "type": "tuple[]"
        }
      ],
      "stateMutability": "view",
      "type": "function"
    },
    {
      "inputs": [
        {
          "internalType": "uint256",
          "name": "tokenId",
          "type": "uint256"
        },
        {
          "internalType": "uint256",
          "name": "price",
          "type": "uint256"
        }
      ],
      "name": "setSaleNftToken",
      "outputs": [],
      "stateMutability": "nonpayable",
      "type": "function"
    },
    {
      "inputs": [],
      "name": "getSaleNftToken",
      "outputs": [
        {
          "internalType": "uint256[]",
          "name": "",
          "type": "uint256[]"
        }
      ],
      "stateMutability": "view",
      "type": "function"
    },
    {
      "inputs": [],
      "name": "getSaleNftTokens",
      "outputs": [
        {
          "components": [
            {
              "internalType": "uint256",
              "name": "nftTokenId",
              "type": "uint256"
            },
            {
              "internalType": "string",
              "name": "nftTokenURI",
              "type": "string"
            },
            {
              "internalType": "uint256",
              "name": "price",
              "type": "uint256"
            }
          ],
          "internalType": "struct BrickToken.NftTokenData[]",
          "name": "",
          "type": "tuple[]"
        }
      ],
      "stateMutability": "view",
      "type": "function"
    },
    {
      "inputs": [
        {
          "internalType": "uint256",
          "name": "tokenId",
          "type": "uint256"
        }
      ],
      "name": "removeToken",
      "outputs": [],
      "stateMutability": "nonpayable",
      "type": "function"
    },
    {
      "inputs": [
        {
          "internalType": "uint256",
          "name": "tokenId",
          "type": "uint256"
        }
      ],
      "name": "buyNftToken",
      "outputs": [],
      "stateMutability": "payable",
      "type": "function"
    },
    {
      "inputs": [
        {
          "internalType": "uint256",
          "name": "tokenId",
          "type": "uint256"
        }
      ],
      "name": "burn",
      "outputs": [],
      "stateMutability": "nonpayable",
      "type": "function"
    }
  ],
  "bytecode": "0x60806040523480156200001157600080fd5b506040518060400160405280600a81526020017f427269636b546f6b656e000000000000000000000000000000000000000000008152506040518060400160405280600281526020017f425400000000000000000000000000000000000000000000000000000000000081525081600090816200008f919062000365565b508060019081620000a1919062000365565b50505033600b60006101000a81548173ffffffffffffffffffffffffffffffffffffffff021916908373ffffffffffffffffffffffffffffffffffffffff1602179055506200044c565b600081519050919050565b7f4e487b7100000000000000000000000000000000000000000000000000000000600052604160045260246000fd5b7f4e487b7100000000000000000000000000000000000000000000000000000000600052602260045260246000fd5b600060028204905060018216806200016d57607f821691505b60208210810362000183576200018262000125565b5b50919050565b60008190508160005260206000209050919050565b60006020601f8301049050919050565b600082821b905092915050565b600060088302620001ed7fffffffffffffffffffffffffffffffffffffffffffffffffffffffffffffffff82620001ae565b620001f98683620001ae565b95508019841693508086168417925050509392505050565b6000819050919050565b6000819050919050565b600062000246620002406200023a8462000211565b6200021b565b62000211565b9050919050565b6000819050919050565b620002628362000225565b6200027a62000271826200024d565b848454620001bb565b825550505050565b600090565b6200029162000282565b6200029e81848462000257565b505050565b5b81811015620002c657620002ba60008262000287565b600181019050620002a4565b5050565b601f8211156200031557620002df8162000189565b620002ea846200019e565b81016020851015620002fa578190505b6200031262000309856200019e565b830182620002a3565b50505b505050565b600082821c905092915050565b60006200033a600019846008026200031a565b1980831691505092915050565b600062000355838362000327565b9150826002028217905092915050565b6200037082620000eb565b67ffffffffffffffff8111156200038c576200038b620000f6565b5b62000398825462000154565b620003a5828285620002ca565b600060209050601f831160018114620003dd5760008415620003c8578287015190505b620003d4858262000347565b86555062000444565b601f198416620003ed8662000189565b60005b828110156200041757848901518255600182019150602085019450602081019050620003f0565b8683101562000437578489015162000433601f89168262000327565b8355505b6001600288020188555050505b505050505050565b6143e9806200045c6000396000f3fe6080604052600436106101b75760003560e01c806370a08231116100ec578063b88d4fde1161008a578063da8cc6e811610064578063da8cc6e81461067a578063e985e9c514610696578063f257f548146106d3578063fb37e88314610710576101b7565b8063b88d4fde146105eb578063b8e297f414610614578063c87b56dd1461063d576101b7565b80638e27652a116100c65780638e27652a1461051d578063912c45cf1461055a57806395d89b4114610597578063a22cb465146105c2576101b7565b806370a082311461047857806373e778c5146104b557806374a6b54f146104f2576101b7565b806323b872dd1161015957806342842e0e1161013357806342842e0e146103ac57806342966c68146103d55780634f6ccce7146103fe5780636352211e1461043b576101b7565b806323b872dd1461031d5780632f745c591461034657806336c5d72414610383576101b7565b8063095ea7b311610195578063095ea7b3146102615780630eed3b541461028a57806318160ddd146102c75780631efceb90146102f2576101b7565b806301ffc9a7146101bc57806306fdde03146101f9578063081812fc14610224575b600080fd5b3480156101c857600080fd5b506101e360048036038101906101de9190612a45565b61074d565b6040516101f09190612a8d565b60405180910390f35b34801561020557600080fd5b5061020e6107c7565b60405161021b9190612b41565b60405180910390f35b34801561023057600080fd5b5061024b60048036038101906102469190612b99565b610859565b6040516102589190612c07565b60405180910390f35b34801561026d57600080fd5b5061028860048036038101906102839190612c4e565b61089f565b005b34801561029657600080fd5b506102b160048036038101906102ac9190612b99565b6109b6565b6040516102be9190612c9d565b60405180910390f35b3480156102d357600080fd5b506102dc6109ce565b6040516102e99190612c9d565b60405180910390f35b3480156102fe57600080fd5b506103076109db565b6040516103149190612d76565b60405180910390f35b34801561032957600080fd5b50610344600480360381019061033f9190612d98565b610a33565b005b34801561035257600080fd5b5061036d60048036038101906103689190612c4e565b610a93565b60405161037a9190612c9d565b60405180910390f35b34801561038f57600080fd5b506103aa60048036038101906103a59190612b99565b610b38565b005b3480156103b857600080fd5b506103d360048036038101906103ce9190612d98565b610c2c565b005b3480156103e157600080fd5b506103fc60048036038101906103f79190612b99565b610c4c565b005b34801561040a57600080fd5b5061042560048036038101906104209190612b99565b610d26565b6040516104329190612c9d565b60405180910390f35b34801561044757600080fd5b50610462600480360381019061045d9190612b99565b610d97565b60405161046f9190612c07565b60405180910390f35b34801561048457600080fd5b5061049f600480360381019061049a9190612deb565b610e48565b6040516104ac9190612c9d565b60405180910390f35b3480156104c157600080fd5b506104dc60048036038101906104d79190612b99565b610eff565b6040516104e99190612c9d565b60405180910390f35b3480156104fe57600080fd5b50610507610f23565b6040516105149190612f74565b60405180910390f35b34801561052957600080fd5b50610544600480360381019061053f9190612b99565b611021565b6040516105519190612b41565b60405180910390f35b34801561056657600080fd5b50610581600480360381019061057c9190612b99565b6110c1565b60405161058e9190612c9d565b60405180910390f35b3480156105a357600080fd5b506105ac6110de565b6040516105b99190612b41565b60405180910390f35b3480156105ce57600080fd5b506105e960048036038101906105e49190612fc2565b611170565b005b3480156105f757600080fd5b50610612600480360381019061060d9190613137565b611186565b005b34801561062057600080fd5b5061063b600480360381019061063691906131ba565b6111e8565b005b34801561064957600080fd5b50610664600480360381019061065f9190612b99565b61138b565b6040516106719190612b41565b60405180910390f35b610694600480360381019061068f9190612b99565b611430565b005b3480156106a257600080fd5b506106bd60048036038101906106b891906131fa565b611775565b6040516106ca9190612a8d565b60405180910390f35b3480156106df57600080fd5b506106fa60048036038101906106f59190612deb565b611809565b6040516107079190612f74565b60405180910390f35b34801561071c57600080fd5b50610737600480360381019061073291906132db565b6118fd565b6040516107449190612c9d565b60405180910390f35b60007f780e9d63000000000000000000000000000000000000000000000000000000007bffffffffffffffffffffffffffffffffffffffffffffffffffffffff1916827bffffffffffffffffffffffffffffffffffffffffffffffffffffffff191614806107c057506107bf8261194b565b5b9050919050565b6060600080546107d690613353565b80601f016020809104026020016040519081016040528092919081815260200182805461080290613353565b801561084f5780601f106108245761010080835404028352916020019161084f565b820191906000526020600020905b81548152906001019060200180831161083257829003601f168201915b5050505050905090565b600061086482611a2d565b6004600083815260200190815260200160002060009054906101000a900473ffffffffffffffffffffffffffffffffffffffff169050919050565b60006108aa82610d97565b90508073ffffffffffffffffffffffffffffffffffffffff168373ffffffffffffffffffffffffffffffffffffffff160361091a576040517f08c379a0000000000000000000000000000000000000000000000000000000008152600401610911906133f6565b60405180910390fd5b8073ffffffffffffffffffffffffffffffffffffffff16610939611a78565b73ffffffffffffffffffffffffffffffffffffffff161480610968575061096781610962611a78565b611775565b5b6109a7576040517f08c379a000000000000000000000000000000000000000000000000000000000815260040161099e90613488565b60405180910390fd5b6109b18383611a80565b505050565b600d6020528060005260406000206000915090505481565b6000600880549050905090565b6060600e805480602002602001604051908101604052809291908181526020018280548015610a2957602002820191906000526020600020905b815481526020019060010190808311610a15575b5050505050905090565b610a44610a3e611a78565b82611b39565b610a83576040517f08c379a0000000000000000000000000000000000000000000000000000000008152600401610a7a9061351a565b60405180910390fd5b610a8e838383611bce565b505050565b6000610a9e83610e48565b8210610adf576040517f08c379a0000000000000000000000000000000000000000000000000000000008152600401610ad6906135ac565b60405180910390fd5b600660008473ffffffffffffffffffffffffffffffffffffffff1673ffffffffffffffffffffffffffffffffffffffff168152602001908152602001600020600083815260200190815260200160002054905092915050565b6000600d60008381526020019081526020016000208190555060005b600e80549050811015610c28576000600d6000600e8481548110610b7b57610b7a6135cc565b5b906000526020600020015481526020019081526020016000205403610c1557600e6001600e80549050610bae919061362a565b81548110610bbf57610bbe6135cc565b5b9060005260206000200154600e8281548110610bde57610bdd6135cc565b5b9060005260206000200181905550600e805480610bfe57610bfd61365e565b5b600190038181906000526020600020016000905590555b8080610c209061368d565b915050610b54565b5050565b610c4783838360405180602001604052806000815250611186565b505050565b6000610c5782610d97565b90503373ffffffffffffffffffffffffffffffffffffffff168173ffffffffffffffffffffffffffffffffffffffff1614610cc7576040517f08c379a0000000000000000000000000000000000000000000000000000000008152600401610cbe90613721565b60405180910390fd5b610cd18130611775565b610d10576040517f08c379a0000000000000000000000000000000000000000000000000000000008152600401610d07906137b3565b60405180910390fd5b610d1982611e34565b610d2282610b38565b5050565b6000610d306109ce565b8210610d71576040517f08c379a0000000000000000000000000000000000000000000000000000000008152600401610d6890613845565b60405180910390fd5b60088281548110610d8557610d846135cc565b5b90600052602060002001549050919050565b6000806002600084815260200190815260200160002060009054906101000a900473ffffffffffffffffffffffffffffffffffffffff169050600073ffffffffffffffffffffffffffffffffffffffff168173ffffffffffffffffffffffffffffffffffffffff1603610e3f576040517f08c379a0000000000000000000000000000000000000000000000000000000008152600401610e36906138b1565b60405180910390fd5b80915050919050565b60008073ffffffffffffffffffffffffffffffffffffffff168273ffffffffffffffffffffffffffffffffffffffff1603610eb8576040517f08c379a0000000000000000000000000000000000000000000000000000000008152600401610eaf90613943565b60405180910390fd5b600360008373ffffffffffffffffffffffffffffffffffffffff1673ffffffffffffffffffffffffffffffffffffffff168152602001908152602001600020549050919050565b600e8181548110610f0f57600080fd5b906000526020600020016000915090505481565b60606000610f2f6109db565b90506000815167ffffffffffffffff811115610f4e57610f4d61300c565b5b604051908082528060200260200182016040528015610f8757816020015b610f746129b8565b815260200190600190039081610f6c5790505b50905060005b8251811015611018576000838281518110610fab57610faa6135cc565b5b602002602001015190506000610fc0826110c1565b90506040518060600160405280838152602001610fdc8461138b565b815260200182815250848481518110610ff857610ff76135cc565b5b6020026020010181905250505080806110109061368d565b915050610f8d565b50809250505090565b600c602052806000526040600020600091509050805461104090613353565b80601f016020809104026020016040519081016040528092919081815260200182805461106c90613353565b80156110b95780601f1061108e576101008083540402835291602001916110b9565b820191906000526020600020905b81548152906001019060200180831161109c57829003601f168201915b505050505081565b6000600d6000838152602001908152602001600020549050919050565b6060600180546110ed90613353565b80601f016020809104026020016040519081016040528092919081815260200182805461111990613353565b80156111665780601f1061113b57610100808354040283529160200191611166565b820191906000526020600020905b81548152906001019060200180831161114957829003601f168201915b5050505050905090565b61118261117b611a78565b8383611f51565b5050565b611197611191611a78565b83611b39565b6111d6576040517f08c379a00000000000000000000000000000000000000000000000000000000081526004016111cd9061351a565b60405180910390fd5b6111e2848484846120bd565b50505050565b60006111f383610d97565b90503373ffffffffffffffffffffffffffffffffffffffff168173ffffffffffffffffffffffffffffffffffffffff1614611263576040517f08c379a000000000000000000000000000000000000000000000000000000000815260040161125a906139af565b60405180910390fd5b600082116112a6576040517f08c379a000000000000000000000000000000000000000000000000000000000815260040161129d90613a1b565b60405180910390fd5b6000600d600085815260200190815260200160002054146112fc576040517f08c379a00000000000000000000000000000000000000000000000000000000081526004016112f390613aad565b60405180910390fd5b6113068130611775565b611345576040517f08c379a000000000000000000000000000000000000000000000000000000000815260040161133c906137b3565b60405180910390fd5b81600d600085815260200190815260200160002081905550600e839080600181540180825580915050600190039060005260206000200160009091909190915055505050565b6060600c600083815260200190815260200160002080546113ab90613353565b80601f01602080910402602001604051908101604052809291908181526020018280546113d790613353565b80156114245780601f106113f957610100808354040283529160200191611424565b820191906000526020600020905b81548152906001019060200180831161140757829003601f168201915b50505050509050919050565b6000600d6000838152602001908152602001600020549050600061145383610d97565b905060008211611498576040517f08c379a000000000000000000000000000000000000000000000000000000000815260040161148f90613b19565b60405180910390fd5b346103e86103e9846114aa9190613b39565b6114b49190613bc2565b11156114f5576040517f08c379a00000000000000000000000000000000000000000000000000000000081526004016114ec90613c3f565b60405180910390fd5b3373ffffffffffffffffffffffffffffffffffffffff168173ffffffffffffffffffffffffffffffffffffffff1603611563576040517f08c379a000000000000000000000000000000000000000000000000000000000815260040161155a90613cab565b60405180910390fd5b61156d8130611775565b6115ac576040517f08c379a00000000000000000000000000000000000000000000000000000000081526004016115a3906137b3565b60405180910390fd5b8073ffffffffffffffffffffffffffffffffffffffff166108fc839081150290604051600060405180830381858888f193505050501580156115f2573d6000803e3d6000fd5b50600b60009054906101000a900473ffffffffffffffffffffffffffffffffffffffff1673ffffffffffffffffffffffffffffffffffffffff166108fc6103e88461163d9190613bc2565b9081150290604051600060405180830381858888f19350505050158015611668573d6000803e3d6000fd5b50346103e86103e98461167b9190613b39565b6116859190613bc2565b10156116f8573373ffffffffffffffffffffffffffffffffffffffff166108fc6103e86103e9856116b69190613b39565b6116c09190613bc2565b346116cb919061362a565b9081150290604051600060405180830381858888f193505050501580156116f6573d6000803e3d6000fd5b505b3073ffffffffffffffffffffffffffffffffffffffff166342842e0e8233866040518463ffffffff1660e01b815260040161173593929190613ccb565b600060405180830381600087803b15801561174f57600080fd5b505af1158015611763573d6000803e3d6000fd5b5050505061177083610b38565b505050565b6000600560008473ffffffffffffffffffffffffffffffffffffffff1673ffffffffffffffffffffffffffffffffffffffff16815260200190815260200160002060008373ffffffffffffffffffffffffffffffffffffffff1673ffffffffffffffffffffffffffffffffffffffff16815260200190815260200160002060009054906101000a900460ff16905092915050565b6060600061181683610e48565b905060008167ffffffffffffffff8111156118345761183361300c565b5b60405190808252806020026020018201604052801561186d57816020015b61185a6129b8565b8152602001906001900390816118525790505b50905060005b828110156118f25760006118878683610a93565b905060006118948261138b565b905060006118a1836110c1565b90506040518060600160405280848152602001838152602001828152508585815181106118d1576118d06135cc565b5b602002602001018190525050505080806118ea9061368d565b915050611873565b508092505050919050565b6000611909600a612119565b6000611915600a61212f565b905082600c600083815260200190815260200160002090816119379190613eae565b50611942338261213d565b80915050919050565b60007f80ac58cd000000000000000000000000000000000000000000000000000000007bffffffffffffffffffffffffffffffffffffffffffffffffffffffff1916827bffffffffffffffffffffffffffffffffffffffffffffffffffffffff19161480611a1657507f5b5e139f000000000000000000000000000000000000000000000000000000007bffffffffffffffffffffffffffffffffffffffffffffffffffffffff1916827bffffffffffffffffffffffffffffffffffffffffffffffffffffffff1916145b80611a265750611a2582612316565b5b9050919050565b611a3681612380565b611a75576040517f08c379a0000000000000000000000000000000000000000000000000000000008152600401611a6c906138b1565b60405180910390fd5b50565b600033905090565b816004600083815260200190815260200160002060006101000a81548173ffffffffffffffffffffffffffffffffffffffff021916908373ffffffffffffffffffffffffffffffffffffffff160217905550808273ffffffffffffffffffffffffffffffffffffffff16611af383610d97565b73ffffffffffffffffffffffffffffffffffffffff167f8c5be1e5ebec7d5bd14f71427d1e84f3dd0314c0f7b2291e5b200ac8c7c3b92560405160405180910390a45050565b600080611b4583610d97565b90508073ffffffffffffffffffffffffffffffffffffffff168473ffffffffffffffffffffffffffffffffffffffff161480611b875750611b868185611775565b5b80611bc557508373ffffffffffffffffffffffffffffffffffffffff16611bad84610859565b73ffffffffffffffffffffffffffffffffffffffff16145b91505092915050565b8273ffffffffffffffffffffffffffffffffffffffff16611bee82610d97565b73ffffffffffffffffffffffffffffffffffffffff1614611c44576040517f08c379a0000000000000000000000000000000000000000000000000000000008152600401611c3b90613ff2565b60405180910390fd5b600073ffffffffffffffffffffffffffffffffffffffff168273ffffffffffffffffffffffffffffffffffffffff1603611cb3576040517f08c379a0000000000000000000000000000000000000000000000000000000008152600401611caa90614084565b60405180910390fd5b611cbe8383836123ec565b611cc9600082611a80565b6001600360008573ffffffffffffffffffffffffffffffffffffffff1673ffffffffffffffffffffffffffffffffffffffff1681526020019081526020016000206000828254611d19919061362a565b925050819055506001600360008473ffffffffffffffffffffffffffffffffffffffff1673ffffffffffffffffffffffffffffffffffffffff1681526020019081526020016000206000828254611d7091906140a4565b92505081905550816002600083815260200190815260200160002060006101000a81548173ffffffffffffffffffffffffffffffffffffffff021916908373ffffffffffffffffffffffffffffffffffffffff160217905550808273ffffffffffffffffffffffffffffffffffffffff168473ffffffffffffffffffffffffffffffffffffffff167fddf252ad1be2c89b69c2b068fc378daa952ba7f163c4a11628f55a4df523b3ef60405160405180910390a4611e2f8383836124fe565b505050565b6000611e3f82610d97565b9050611e4d816000846123ec565b611e58600083611a80565b6001600360008373ffffffffffffffffffffffffffffffffffffffff1673ffffffffffffffffffffffffffffffffffffffff1681526020019081526020016000206000828254611ea8919061362a565b925050819055506002600083815260200190815260200160002060006101000a81549073ffffffffffffffffffffffffffffffffffffffff021916905581600073ffffffffffffffffffffffffffffffffffffffff168273ffffffffffffffffffffffffffffffffffffffff167fddf252ad1be2c89b69c2b068fc378daa952ba7f163c4a11628f55a4df523b3ef60405160405180910390a4611f4d816000846124fe565b5050565b8173ffffffffffffffffffffffffffffffffffffffff168373ffffffffffffffffffffffffffffffffffffffff1603611fbf576040517f08c379a0000000000000000000000000000000000000000000000000000000008152600401611fb690614146565b60405180910390fd5b80600560008573ffffffffffffffffffffffffffffffffffffffff1673ffffffffffffffffffffffffffffffffffffffff16815260200190815260200160002060008473ffffffffffffffffffffffffffffffffffffffff1673ffffffffffffffffffffffffffffffffffffffff16815260200190815260200160002060006101000a81548160ff0219169083151502179055508173ffffffffffffffffffffffffffffffffffffffff168373ffffffffffffffffffffffffffffffffffffffff167f17307eab39ab6107e8899845ad3d59bd9653f200f220920489ca2b5937696c31836040516120b09190612a8d565b60405180910390a3505050565b6120c8848484611bce565b6120d484848484612503565b612113576040517f08c379a000000000000000000000000000000000000000000000000000000000815260040161210a906141d8565b60405180910390fd5b50505050565b6001816000016000828254019250508190555050565b600081600001549050919050565b600073ffffffffffffffffffffffffffffffffffffffff168273ffffffffffffffffffffffffffffffffffffffff16036121ac576040517f08c379a00000000000000000000000000000000000000000000000000000000081526004016121a390614244565b60405180910390fd5b6121b581612380565b156121f5576040517f08c379a00000000000000000000000000000000000000000000000000000000081526004016121ec906142b0565b60405180910390fd5b612201600083836123ec565b6001600360008473ffffffffffffffffffffffffffffffffffffffff1673ffffffffffffffffffffffffffffffffffffffff168152602001908152602001600020600082825461225191906140a4565b92505081905550816002600083815260200190815260200160002060006101000a81548173ffffffffffffffffffffffffffffffffffffffff021916908373ffffffffffffffffffffffffffffffffffffffff160217905550808273ffffffffffffffffffffffffffffffffffffffff16600073ffffffffffffffffffffffffffffffffffffffff167fddf252ad1be2c89b69c2b068fc378daa952ba7f163c4a11628f55a4df523b3ef60405160405180910390a4612312600083836124fe565b5050565b60007f01ffc9a7000000000000000000000000000000000000000000000000000000007bffffffffffffffffffffffffffffffffffffffffffffffffffffffff1916827bffffffffffffffffffffffffffffffffffffffffffffffffffffffff1916149050919050565b60008073ffffffffffffffffffffffffffffffffffffffff166002600084815260200190815260200160002060009054906101000a900473ffffffffffffffffffffffffffffffffffffffff1673ffffffffffffffffffffffffffffffffffffffff1614159050919050565b6123f783838361268a565b600073ffffffffffffffffffffffffffffffffffffffff168373ffffffffffffffffffffffffffffffffffffffff1603612439576124348161268f565b612478565b8173ffffffffffffffffffffffffffffffffffffffff168373ffffffffffffffffffffffffffffffffffffffff16146124775761247683826126d8565b5b5b600073ffffffffffffffffffffffffffffffffffffffff168273ffffffffffffffffffffffffffffffffffffffff16036124ba576124b581612845565b6124f9565b8273ffffffffffffffffffffffffffffffffffffffff168273ffffffffffffffffffffffffffffffffffffffff16146124f8576124f78282612916565b5b5b505050565b505050565b60006125248473ffffffffffffffffffffffffffffffffffffffff16612995565b1561267d578373ffffffffffffffffffffffffffffffffffffffff1663150b7a0261254d611a78565b8786866040518563ffffffff1660e01b815260040161256f9493929190614325565b6020604051808303816000875af19250505080156125ab57506040513d601f19601f820116820180604052508101906125a89190614386565b60015b61262d573d80600081146125db576040519150601f19603f3d011682016040523d82523d6000602084013e6125e0565b606091505b506000815103612625576040517f08c379a000000000000000000000000000000000000000000000000000000000815260040161261c906141d8565b60405180910390fd5b805181602001fd5b63150b7a0260e01b7bffffffffffffffffffffffffffffffffffffffffffffffffffffffff1916817bffffffffffffffffffffffffffffffffffffffffffffffffffffffff191614915050612682565b600190505b949350505050565b505050565b6008805490506009600083815260200190815260200160002081905550600881908060018154018082558091505060019003906000526020600020016000909190919091505550565b600060016126e584610e48565b6126ef919061362a565b90506000600760008481526020019081526020016000205490508181146127d4576000600660008673ffffffffffffffffffffffffffffffffffffffff1673ffffffffffffffffffffffffffffffffffffffff168152602001908152602001600020600084815260200190815260200160002054905080600660008773ffffffffffffffffffffffffffffffffffffffff1673ffffffffffffffffffffffffffffffffffffffff168152602001908152602001600020600084815260200190815260200160002081905550816007600083815260200190815260200160002081905550505b6007600084815260200190815260200160002060009055600660008573ffffffffffffffffffffffffffffffffffffffff1673ffffffffffffffffffffffffffffffffffffffff16815260200190815260200160002060008381526020019081526020016000206000905550505050565b60006001600880549050612859919061362a565b9050600060096000848152602001908152602001600020549050600060088381548110612889576128886135cc565b5b9060005260206000200154905080600883815481106128ab576128aa6135cc565b5b9060005260206000200181905550816009600083815260200190815260200160002081905550600960008581526020019081526020016000206000905560088054806128fa576128f961365e565b5b6001900381819060005260206000200160009055905550505050565b600061292183610e48565b905081600660008573ffffffffffffffffffffffffffffffffffffffff1673ffffffffffffffffffffffffffffffffffffffff168152602001908152602001600020600083815260200190815260200160002081905550806007600084815260200190815260200160002081905550505050565b6000808273ffffffffffffffffffffffffffffffffffffffff163b119050919050565b60405180606001604052806000815260200160608152602001600081525090565b6000604051905090565b600080fd5b600080fd5b60007fffffffff0000000000000000000000000000000000000000000000000000000082169050919050565b612a22816129ed565b8114612a2d57600080fd5b50565b600081359050612a3f81612a19565b92915050565b600060208284031215612a5b57612a5a6129e3565b5b6000612a6984828501612a30565b91505092915050565b60008115159050919050565b612a8781612a72565b82525050565b6000602082019050612aa26000830184612a7e565b92915050565b600081519050919050565b600082825260208201905092915050565b60005b83811015612ae2578082015181840152602081019050612ac7565b83811115612af1576000848401525b50505050565b6000601f19601f8301169050919050565b6000612b1382612aa8565b612b1d8185612ab3565b9350612b2d818560208601612ac4565b612b3681612af7565b840191505092915050565b60006020820190508181036000830152612b5b8184612b08565b905092915050565b6000819050919050565b612b7681612b63565b8114612b8157600080fd5b50565b600081359050612b9381612b6d565b92915050565b600060208284031215612baf57612bae6129e3565b5b6000612bbd84828501612b84565b91505092915050565b600073ffffffffffffffffffffffffffffffffffffffff82169050919050565b6000612bf182612bc6565b9050919050565b612c0181612be6565b82525050565b6000602082019050612c1c6000830184612bf8565b92915050565b612c2b81612be6565b8114612c3657600080fd5b50565b600081359050612c4881612c22565b92915050565b60008060408385031215612c6557612c646129e3565b5b6000612c7385828601612c39565b9250506020612c8485828601612b84565b9150509250929050565b612c9781612b63565b82525050565b6000602082019050612cb26000830184612c8e565b92915050565b600081519050919050565b600082825260208201905092915050565b6000819050602082019050919050565b612ced81612b63565b82525050565b6000612cff8383612ce4565b60208301905092915050565b6000602082019050919050565b6000612d2382612cb8565b612d2d8185612cc3565b9350612d3883612cd4565b8060005b83811015612d69578151612d508882612cf3565b9750612d5b83612d0b565b925050600181019050612d3c565b5085935050505092915050565b60006020820190508181036000830152612d908184612d18565b905092915050565b600080600060608486031215612db157612db06129e3565b5b6000612dbf86828701612c39565b9350506020612dd086828701612c39565b9250506040612de186828701612b84565b9150509250925092565b600060208284031215612e0157612e006129e3565b5b6000612e0f84828501612c39565b91505092915050565b600081519050919050565b600082825260208201905092915050565b6000819050602082019050919050565b600082825260208201905092915050565b6000612e6082612aa8565b612e6a8185612e44565b9350612e7a818560208601612ac4565b612e8381612af7565b840191505092915050565b6000606083016000830151612ea66000860182612ce4565b5060208301518482036020860152612ebe8282612e55565b9150506040830151612ed36040860182612ce4565b508091505092915050565b6000612eea8383612e8e565b905092915050565b6000602082019050919050565b6000612f0a82612e18565b612f148185612e23565b935083602082028501612f2685612e34565b8060005b85811015612f625784840389528151612f438582612ede565b9450612f4e83612ef2565b925060208a01995050600181019050612f2a565b50829750879550505050505092915050565b60006020820190508181036000830152612f8e8184612eff565b905092915050565b612f9f81612a72565b8114612faa57600080fd5b50565b600081359050612fbc81612f96565b92915050565b60008060408385031215612fd957612fd86129e3565b5b6000612fe785828601612c39565b9250506020612ff885828601612fad565b9150509250929050565b600080fd5b600080fd5b7f4e487b7100000000000000000000000000000000000000000000000000000000600052604160045260246000fd5b61304482612af7565b810181811067ffffffffffffffff821117156130635761306261300c565b5b80604052505050565b60006130766129d9565b9050613082828261303b565b919050565b600067ffffffffffffffff8211156130a2576130a161300c565b5b6130ab82612af7565b9050602081019050919050565b82818337600083830152505050565b60006130da6130d584613087565b61306c565b9050828152602081018484840111156130f6576130f5613007565b5b6131018482856130b8565b509392505050565b600082601f83011261311e5761311d613002565b5b813561312e8482602086016130c7565b91505092915050565b60008060008060808587031215613151576131506129e3565b5b600061315f87828801612c39565b945050602061317087828801612c39565b935050604061318187828801612b84565b925050606085013567ffffffffffffffff8111156131a2576131a16129e8565b5b6131ae87828801613109565b91505092959194509250565b600080604083850312156131d1576131d06129e3565b5b60006131df85828601612b84565b92505060206131f085828601612b84565b9150509250929050565b60008060408385031215613211576132106129e3565b5b600061321f85828601612c39565b925050602061323085828601612c39565b9150509250929050565b600067ffffffffffffffff8211156132555761325461300c565b5b61325e82612af7565b9050602081019050919050565b600061327e6132798461323a565b61306c565b90508281526020810184848401111561329a57613299613007565b5b6132a58482856130b8565b509392505050565b600082601f8301126132c2576132c1613002565b5b81356132d284826020860161326b565b91505092915050565b6000602082840312156132f1576132f06129e3565b5b600082013567ffffffffffffffff81111561330f5761330e6129e8565b5b61331b848285016132ad565b91505092915050565b7f4e487b7100000000000000000000000000000000000000000000000000000000600052602260045260246000fd5b6000600282049050600182168061336b57607f821691505b60208210810361337e5761337d613324565b5b50919050565b7f4552433732313a20617070726f76616c20746f2063757272656e74206f776e6560008201527f7200000000000000000000000000000000000000000000000000000000000000602082015250565b60006133e0602183612ab3565b91506133eb82613384565b604082019050919050565b6000602082019050818103600083015261340f816133d3565b9050919050565b7f4552433732313a20617070726f76652063616c6c6572206973206e6f7420746f60008201527f6b656e206f776e6572206e6f7220617070726f76656420666f7220616c6c0000602082015250565b6000613472603e83612ab3565b915061347d82613416565b604082019050919050565b600060208201905081810360008301526134a181613465565b9050919050565b7f4552433732313a2063616c6c6572206973206e6f7420746f6b656e206f776e6560008201527f72206e6f7220617070726f766564000000000000000000000000000000000000602082015250565b6000613504602e83612ab3565b915061350f826134a8565b604082019050919050565b60006020820190508181036000830152613533816134f7565b9050919050565b7f455243373231456e756d657261626c653a206f776e657220696e646578206f7560008201527f74206f6620626f756e6473000000000000000000000000000000000000000000602082015250565b6000613596602b83612ab3565b91506135a18261353a565b604082019050919050565b600060208201905081810360008301526135c581613589565b9050919050565b7f4e487b7100000000000000000000000000000000000000000000000000000000600052603260045260246000fd5b7f4e487b7100000000000000000000000000000000000000000000000000000000600052601160045260246000fd5b600061363582612b63565b915061364083612b63565b925082821015613653576136526135fb565b5b828203905092915050565b7f4e487b7100000000000000000000000000000000000000000000000000000000600052603160045260246000fd5b600061369882612b63565b91507fffffffffffffffffffffffffffffffffffffffffffffffffffffffffffffffff82036136ca576136c96135fb565b5b600182019050919050565b7f63616c6c6572206973206e6f74206e667420746f6b656e206f776e65722e0000600082015250565b600061370b601e83612ab3565b9150613716826136d5565b602082019050919050565b6000602082019050818103600083015261373a816136fe565b9050919050565b7f6e667420746f6b656e206f776e657220646964206e6f7420617070726f76652060008201527f746f6b656e2e0000000000000000000000000000000000000000000000000000602082015250565b600061379d602683612ab3565b91506137a882613741565b604082019050919050565b600060208201905081810360008301526137cc81613790565b9050919050565b7f455243373231456e756d657261626c653a20676c6f62616c20696e646578206f60008201527f7574206f6620626f756e64730000000000000000000000000000000000000000602082015250565b600061382f602c83612ab3565b915061383a826137d3565b604082019050919050565b6000602082019050818103600083015261385e81613822565b9050919050565b7f4552433732313a20696e76616c696420746f6b656e2049440000000000000000600082015250565b600061389b601883612ab3565b91506138a682613865565b602082019050919050565b600060208201905081810360008301526138ca8161388e565b9050919050565b7f4552433732313a2061646472657373207a65726f206973206e6f74206120766160008201527f6c6964206f776e65720000000000000000000000000000000000000000000000602082015250565b600061392d602983612ab3565b9150613938826138d1565b604082019050919050565b6000602082019050818103600083015261395c81613920565b9050919050565b7f43616c6c6572206973206e6f74206e667420746f6b656e206f776e65722e0000600082015250565b6000613999601e83612ab3565b91506139a482613963565b602082019050919050565b600060208201905081810360008301526139c88161398c565b9050919050565b7f5072696365206973207a65726f206f72206c6f7765722e000000000000000000600082015250565b6000613a05601783612ab3565b9150613a10826139cf565b602082019050919050565b60006020820190508181036000830152613a34816139f8565b9050919050565b7f54686973206e667420746f6b656e20697320616c7265616479206f6e2073616c60008201527f652e000000000000000000000000000000000000000000000000000000000000602082015250565b6000613a97602283612ab3565b9150613aa282613a3b565b604082019050919050565b60006020820190508181036000830152613ac681613a8a565b9050919050565b7f6e667420746f6b656e206e6f742073616c652e00000000000000000000000000600082015250565b6000613b03601383612ab3565b9150613b0e82613acd565b602082019050919050565b60006020820190508181036000830152613b3281613af6565b9050919050565b6000613b4482612b63565b9150613b4f83612b63565b9250817fffffffffffffffffffffffffffffffffffffffffffffffffffffffffffffffff0483118215151615613b8857613b876135fb565b5b828202905092915050565b7f4e487b7100000000000000000000000000000000000000000000000000000000600052601260045260246000fd5b6000613bcd82612b63565b9150613bd883612b63565b925082613be857613be7613b93565b5b828204905092915050565b7f63616c6c65722073656e74206c6f776572207468616e2070726963652e000000600082015250565b6000613c29601d83612ab3565b9150613c3482613bf3565b602082019050919050565b60006020820190508181036000830152613c5881613c1c565b9050919050565b7f63616c6c6572206973206e667420746f6b656e206f776e65722e000000000000600082015250565b6000613c95601a83612ab3565b9150613ca082613c5f565b602082019050919050565b60006020820190508181036000830152613cc481613c88565b9050919050565b6000606082019050613ce06000830186612bf8565b613ced6020830185612bf8565b613cfa6040830184612c8e565b949350505050565b60008190508160005260206000209050919050565b60006020601f8301049050919050565b600082821b905092915050565b600060088302613d647fffffffffffffffffffffffffffffffffffffffffffffffffffffffffffffffff82613d27565b613d6e8683613d27565b95508019841693508086168417925050509392505050565b6000819050919050565b6000613dab613da6613da184612b63565b613d86565b612b63565b9050919050565b6000819050919050565b613dc583613d90565b613dd9613dd182613db2565b848454613d34565b825550505050565b600090565b613dee613de1565b613df9818484613dbc565b505050565b5b81811015613e1d57613e12600082613de6565b600181019050613dff565b5050565b601f821115613e6257613e3381613d02565b613e3c84613d17565b81016020851015613e4b578190505b613e5f613e5785613d17565b830182613dfe565b50505b505050565b600082821c905092915050565b6000613e8560001984600802613e67565b1980831691505092915050565b6000613e9e8383613e74565b9150826002028217905092915050565b613eb782612aa8565b67ffffffffffffffff811115613ed057613ecf61300c565b5b613eda8254613353565b613ee5828285613e21565b600060209050601f831160018114613f185760008415613f06578287015190505b613f108582613e92565b865550613f78565b601f198416613f2686613d02565b60005b82811015613f4e57848901518255600182019150602085019450602081019050613f29565b86831015613f6b5784890151613f67601f891682613e74565b8355505b6001600288020188555050505b505050505050565b7f4552433732313a207472616e736665722066726f6d20696e636f72726563742060008201527f6f776e6572000000000000000000000000000000000000000000000000000000602082015250565b6000613fdc602583612ab3565b9150613fe782613f80565b604082019050919050565b6000602082019050818103600083015261400b81613fcf565b9050919050565b7f4552433732313a207472616e7366657220746f20746865207a65726f2061646460008201527f7265737300000000000000000000000000000000000000000000000000000000602082015250565b600061406e602483612ab3565b915061407982614012565b604082019050919050565b6000602082019050818103600083015261409d81614061565b9050919050565b60006140af82612b63565b91506140ba83612b63565b9250827fffffffffffffffffffffffffffffffffffffffffffffffffffffffffffffffff038211156140ef576140ee6135fb565b5b828201905092915050565b7f4552433732313a20617070726f766520746f2063616c6c657200000000000000600082015250565b6000614130601983612ab3565b915061413b826140fa565b602082019050919050565b6000602082019050818103600083015261415f81614123565b9050919050565b7f4552433732313a207472616e7366657220746f206e6f6e20455243373231526560008201527f63656976657220696d706c656d656e7465720000000000000000000000000000602082015250565b60006141c2603283612ab3565b91506141cd82614166565b604082019050919050565b600060208201905081810360008301526141f1816141b5565b9050919050565b7f4552433732313a206d696e7420746f20746865207a65726f2061646472657373600082015250565b600061422e602083612ab3565b9150614239826141f8565b602082019050919050565b6000602082019050818103600083015261425d81614221565b9050919050565b7f4552433732313a20746f6b656e20616c7265616479206d696e74656400000000600082015250565b600061429a601c83612ab3565b91506142a582614264565b602082019050919050565b600060208201905081810360008301526142c98161428d565b9050919050565b600081519050919050565b600082825260208201905092915050565b60006142f7826142d0565b61430181856142db565b9350614311818560208601612ac4565b61431a81612af7565b840191505092915050565b600060808201905061433a6000830187612bf8565b6143476020830186612bf8565b6143546040830185612c8e565b818103606083015261436681846142ec565b905095945050505050565b60008151905061438081612a19565b92915050565b60006020828403121561439c5761439b6129e3565b5b60006143aa84828501614371565b9150509291505056fea26469706673582212205a6ff4793746b3d85363546f490dea1e2620954ff6376f159e678281ac4ab9fc64736f6c634300080f0033",
  "immutableReferences": {},
  "source": "// contracts/MintBrickNFT.sol\n// SPDX-License-Identifier: MIT\n\npragma solidity ^0.8.7;\n\nimport '@openzeppelin/contracts/token/ERC721/extensions/ERC721Enumerable.sol';\nimport '@openzeppelin/contracts/utils/Counters.sol';\n\ncontract BrickToken is ERC721Enumerable {\n    using Counters for Counters.Counter;\n    Counters.Counter private _tokenId;\n\n    // contract \n    address payable owner;\n\n    // tokenId mapping token URI\n    mapping(uint256 => string) public _nftTokenURIs;\n    // tokenId mapping token \n    mapping(uint256 => uint256) public _nftTokenPrices;\n\n    //     \n    uint256[] public onSaleNftTokenArray;\n\n    constructor() ERC721('BrickToken', 'BT') {\n        owner = payable(msg.sender);\n    }\n\n    // tokenId  tokenURI  \n    function tokenURI(uint256 tokenId)\n        public\n        view\n        override\n        returns (string memory)\n    {\n        return _nftTokenURIs[tokenId];\n    }\n\n    // NFT  \n    function mintNFT(string memory _tokenURI) public returns (uint256) {\n        _tokenId.increment();\n        uint256 tokenId = _tokenId.current();\n\n        _nftTokenURIs[tokenId] = _tokenURI;\n        _mint(msg.sender, tokenId);\n\n        return tokenId;\n    }\n\n    //    \n    function getNftTokenPrice(uint256 tokenId) public view returns (uint256) {\n        return _nftTokenPrices[tokenId];\n    }\n\n    //     \n    struct NftTokenData {\n        uint256 nftTokenId;\n        string nftTokenURI;\n        uint256 price;\n    }\n\n    //      \n    function getNftTokens(address nftTokenOwner)\n        public\n        view\n        returns (NftTokenData[] memory)\n    {\n        // nftTokenOwner    \n        uint256 balanceLength = balanceOf(nftTokenOwner);\n\n        // for          \n        NftTokenData[] memory nftTokenDatas = new NftTokenData[](balanceLength);\n        for (uint256 i = 0; i < balanceLength; i++) {\n            uint256 nftTokenId = tokenOfOwnerByIndex(nftTokenOwner, i);\n            string memory nftTokenURI = tokenURI(nftTokenId);\n            uint256 nftTokenPrice = getNftTokenPrice(nftTokenId);\n\n            nftTokenDatas[i] = NftTokenData(\n                nftTokenId,\n                nftTokenURI,\n                nftTokenPrice\n            );\n        }\n\n        return nftTokenDatas;\n    }\n\n    //   \n    function setSaleNftToken(uint256 tokenId, uint256 price) public {\n        address nftTokenOwner = ownerOf(tokenId);\n\n        //     \n        require(nftTokenOwner == msg.sender, 'Caller is not nft token owner.');\n        //   0 .\n        require(price > 0, 'Price is zero or lower.');\n        //    0        .\n        require(\n            _nftTokenPrices[tokenId] == 0,\n            'This nft token is already on sale.'\n        );\n        //     \n        require(\n            isApprovedForAll(nftTokenOwner, address(this)),\n            'nft token owner did not approve token.'\n        );\n\n        //       \n        _nftTokenPrices[tokenId] = price;\n        onSaleNftTokenArray.push(tokenId);\n    }\n\n    //       \n    function getSaleNftToken() public view returns (uint256[] memory) {\n        return onSaleNftTokenArray;\n    }\n\n    //       \n    function getSaleNftTokens() public view returns (NftTokenData[] memory) {\n        uint256[] memory onSaleNftToken = getSaleNftToken();\n        NftTokenData[] memory onSaleNftTokens = new NftTokenData[](\n            onSaleNftToken.length\n        );\n\n        for (uint256 i = 0; i < onSaleNftToken.length; i++) {\n            uint256 tokenId = onSaleNftToken[i];\n            uint256 tokenPrice = getNftTokenPrice(tokenId);\n\n            onSaleNftTokens[i] = NftTokenData(\n                tokenId,\n                tokenURI(tokenId),\n                tokenPrice\n            );\n        }\n\n        return onSaleNftTokens;\n    }\n\n    //          \n    function removeToken(uint256 tokenId) public {\n        _nftTokenPrices[tokenId] = 0;\n\n        for (uint256 i = 0; i < onSaleNftTokenArray.length; i++) {\n            if (_nftTokenPrices[onSaleNftTokenArray[i]] == 0) {\n                onSaleNftTokenArray[i] = onSaleNftTokenArray[\n                    onSaleNftTokenArray.length - 1\n                ];\n                onSaleNftTokenArray.pop();\n            }\n        }\n    }\n\n    //  \n    function buyNftToken(uint256 tokenId) public payable {\n        uint256 price = _nftTokenPrices[tokenId];\n        address nftTokenOwner = ownerOf(tokenId);\n\n        //    \n        require(price > 0, 'nft token not sale.');\n        //      \n        require(\n            (price * 1001) / 1000 <= msg.value,\n            'caller sent lower than price.'\n        );\n        //        \n        require(nftTokenOwner != msg.sender, 'caller is nft token owner.');\n        //     \n        require(\n            isApprovedForAll(nftTokenOwner, address(this)),\n            'nft token owner did not approve token.'\n        );\n\n        payable(nftTokenOwner).transfer(price);\n        payable(owner).transfer(price / 1000);\n        if ((price * 1001) / 1000 < msg.value)\n            payable(msg.sender).transfer(msg.value - ((price * 1001) / 1000));\n\n        IERC721(address(this)).safeTransferFrom(\n            nftTokenOwner,\n            msg.sender,\n            tokenId\n        );\n\n        //   \n        removeToken(tokenId);\n    }\n\n    //   \n    function burn(uint256 tokenId) public {\n        address nftTokenOwner = ownerOf(tokenId);\n\n        //    \n        require(nftTokenOwner == msg.sender, 'caller is not nft token owner.');\n        //     \n        require(\n            isApprovedForAll(nftTokenOwner, address(this)),\n            'nft token owner did not approve token.'\n        );\n\n        _burn(tokenId);\n        removeToken(tokenId);\n    }\n}\n",
  "sourcePath": "/home/octo/42brick_backend/contract/contracts/BrickTokenERC721.sol",
  "compiler": {
    "name": "solc",
    "version": "0.8.15+commit.e14f2714.Emscripten.clang"
  },
  "schemaVersion": "3.4.7",
  "updatedAt": "2022-09-07T05:59:47.045Z",
  "devdoc": {
    "kind": "dev",
    "methods": {
      "approve(address,uint256)": {
        "details": "See {IERC721-approve}."
      },
      "balanceOf(address)": {
        "details": "See {IERC721-balanceOf}."
      },
      "getApproved(uint256)": {
        "details": "See {IERC721-getApproved}."
      },
      "isApprovedForAll(address,address)": {
        "details": "See {IERC721-isApprovedForAll}."
      },
      "name()": {
        "details": "See {IERC721Metadata-name}."
      },
      "ownerOf(uint256)": {
        "details": "See {IERC721-ownerOf}."
      },
      "safeTransferFrom(address,address,uint256)": {
        "details": "See {IERC721-safeTransferFrom}."
      },
      "safeTransferFrom(address,address,uint256,bytes)": {
        "details": "See {IERC721-safeTransferFrom}."
      },
      "setApprovalForAll(address,bool)": {
        "details": "See {IERC721-setApprovalForAll}."
      },
      "supportsInterface(bytes4)": {
        "details": "See {IERC165-supportsInterface}."
      },
      "symbol()": {
        "details": "See {IERC721Metadata-symbol}."
      },
      "tokenByIndex(uint256)": {
        "details": "See {IERC721Enumerable-tokenByIndex}."
      },
      "tokenOfOwnerByIndex(address,uint256)": {
        "details": "See {IERC721Enumerable-tokenOfOwnerByIndex}."
      },
      "tokenURI(uint256)": {
        "details": "See {IERC721Metadata-tokenURI}."
      },
      "totalSupply()": {
        "details": "See {IERC721Enumerable-totalSupply}."
      },
      "transferFrom(address,address,uint256)": {
        "details": "See {IERC721-transferFrom}."
      }
    },
    "version": 1
  },
  "userdoc": {
    "kind": "user",
    "methods": {},
    "version": 1
  }
}